{
	"HitchHike.sol": {
		"Hitchhike": {
			"abi": [
				{
					"anonymous": false,
					"inputs": [
						{
							"indexed": true,
							"internalType": "address",
							"name": "hitchhiker",
							"type": "address"
						},
						{
							"indexed": true,
							"internalType": "address",
							"name": "driver",
							"type": "address"
						}
					],
					"name": "RideAccepted",
					"type": "event"
				},
				{
					"anonymous": false,
					"inputs": [
						{
							"indexed": true,
							"internalType": "address",
							"name": "hitchhiker",
							"type": "address"
						},
						{
							"indexed": true,
							"internalType": "address",
							"name": "driver",
							"type": "address"
						}
					],
					"name": "RideCancelled",
					"type": "event"
				},
				{
					"anonymous": false,
					"inputs": [
						{
							"indexed": true,
							"internalType": "address",
							"name": "hitchhiker",
							"type": "address"
						},
						{
							"indexed": true,
							"internalType": "address",
							"name": "driver",
							"type": "address"
						}
					],
					"name": "RideCompleted",
					"type": "event"
				},
				{
					"anonymous": false,
					"inputs": [
						{
							"indexed": true,
							"internalType": "address",
							"name": "hitchhiker",
							"type": "address"
						},
						{
							"indexed": false,
							"internalType": "string",
							"name": "currentLocation",
							"type": "string"
						},
						{
							"indexed": false,
							"internalType": "string",
							"name": "destination",
							"type": "string"
						},
						{
							"indexed": false,
							"internalType": "uint256",
							"name": "cost",
							"type": "uint256"
						},
						{
							"indexed": false,
							"internalType": "uint256",
							"name": "estimatedTime",
							"type": "uint256"
						}
					],
					"name": "RideRequested",
					"type": "event"
				},
				{
					"anonymous": false,
					"inputs": [
						{
							"indexed": true,
							"internalType": "address",
							"name": "walletAddress",
							"type": "address"
						},
						{
							"indexed": false,
							"internalType": "enum Hitchhike.UserType",
							"name": "userType",
							"type": "uint8"
						}
					],
					"name": "UserLoggedIn",
					"type": "event"
				},
				{
					"anonymous": false,
					"inputs": [
						{
							"indexed": true,
							"internalType": "address",
							"name": "walletAddress",
							"type": "address"
						},
						{
							"indexed": false,
							"internalType": "string",
							"name": "name",
							"type": "string"
						},
						{
							"indexed": false,
							"internalType": "enum Hitchhike.UserType",
							"name": "userType",
							"type": "uint8"
						}
					],
					"name": "UserRegistered",
					"type": "event"
				},
				{
					"inputs": [],
					"name": "loginUser",
					"outputs": [],
					"stateMutability": "nonpayable",
					"type": "function"
				},
				{
					"inputs": [
						{
							"internalType": "string",
							"name": "_name",
							"type": "string"
						},
						{
							"internalType": "enum Hitchhike.UserType",
							"name": "_userType",
							"type": "uint8"
						}
					],
					"name": "registerUser",
					"outputs": [],
					"stateMutability": "nonpayable",
					"type": "function"
				},
				{
					"inputs": [
						{
							"internalType": "string",
							"name": "_currentLocation",
							"type": "string"
						},
						{
							"internalType": "string",
							"name": "_destination",
							"type": "string"
						},
						{
							"internalType": "uint256",
							"name": "_cost",
							"type": "uint256"
						},
						{
							"internalType": "uint256",
							"name": "_estimatedTime",
							"type": "uint256"
						},
						{
							"internalType": "bool",
							"name": "_isAccepted",
							"type": "bool"
						},
						{
							"internalType": "bool",
							"name": "_isCompleted",
							"type": "bool"
						},
						{
							"internalType": "bool",
							"name": "_passengerConfirmed",
							"type": "bool"
						},
						{
							"internalType": "bool",
							"name": "_driverConfirmed",
							"type": "bool"
						},
						{
							"internalType": "bool",
							"name": "_isCancelled",
							"type": "bool"
						}
					],
					"name": "requestRide",
					"outputs": [],
					"stateMutability": "nonpayable",
					"type": "function"
				},
				{
					"inputs": [
						{
							"internalType": "address",
							"name": "",
							"type": "address"
						}
					],
					"name": "rideDetails",
					"outputs": [
						{
							"internalType": "address",
							"name": "driver",
							"type": "address"
						},
						{
							"internalType": "string",
							"name": "vehicleType",
							"type": "string"
						},
						{
							"internalType": "string",
							"name": "currentLocation",
							"type": "string"
						},
						{
							"internalType": "uint256",
							"name": "cost",
							"type": "uint256"
						},
						{
							"internalType": "uint256",
							"name": "estimatedTime",
							"type": "uint256"
						}
					],
					"stateMutability": "view",
					"type": "function"
				},
				{
					"inputs": [
						{
							"internalType": "address",
							"name": "",
							"type": "address"
						}
					],
					"name": "rideRequests",
					"outputs": [
						{
							"internalType": "address",
							"name": "hitchhiker",
							"type": "address"
						},
						{
							"internalType": "address payable",
							"name": "driver",
							"type": "address"
						},
						{
							"internalType": "string",
							"name": "currentLocation",
							"type": "string"
						},
						{
							"internalType": "string",
							"name": "destination",
							"type": "string"
						},
						{
							"internalType": "uint256",
							"name": "cost",
							"type": "uint256"
						},
						{
							"internalType": "uint256",
							"name": "estimatedTime",
							"type": "uint256"
						},
						{
							"internalType": "bool",
							"name": "isAccepted",
							"type": "bool"
						},
						{
							"internalType": "bool",
							"name": "isCompleted",
							"type": "bool"
						},
						{
							"internalType": "bool",
							"name": "passengerConfirmed",
							"type": "bool"
						},
						{
							"internalType": "bool",
							"name": "driverConfirmed",
							"type": "bool"
						},
						{
							"internalType": "bool",
							"name": "isCancelled",
							"type": "bool"
						}
					],
					"stateMutability": "view",
					"type": "function"
				},
				{
					"inputs": [
						{
							"internalType": "address",
							"name": "",
							"type": "address"
						}
					],
					"name": "users",
					"outputs": [
						{
							"internalType": "string",
							"name": "name",
							"type": "string"
						},
						{
							"internalType": "address",
							"name": "walletAddress",
							"type": "address"
						},
						{
							"internalType": "enum Hitchhike.UserType",
							"name": "userType",
							"type": "uint8"
						}
					],
					"stateMutability": "view",
					"type": "function"
				}
			],
			"devdoc": {
				"kind": "dev",
				"methods": {},
				"version": 1
			},
			"evm": {
				"assembly": "    /* \"HitchHike.sol\":60:3679  contract Hitchhike {\r... */\n  mstore(0x40, 0x80)\n  callvalue\n  dup1\n  iszero\n  tag_1\n  jumpi\n  0x00\n  dup1\n  revert\ntag_1:\n  pop\n  dataSize(sub_0)\n  dup1\n  dataOffset(sub_0)\n  0x00\n  codecopy\n  0x00\n  return\nstop\n\nsub_0: assembly {\n        /* \"HitchHike.sol\":60:3679  contract Hitchhike {\r... */\n      mstore(0x40, 0x80)\n      callvalue\n      dup1\n      iszero\n      tag_1\n      jumpi\n      0x00\n      dup1\n      revert\n    tag_1:\n      pop\n      jumpi(tag_2, lt(calldatasize, 0x04))\n      shr(0xe0, calldataload(0x00))\n      dup1\n      0x10cf8c91\n      eq\n      tag_3\n      jumpi\n      dup1\n      0x338e12eb\n      eq\n      tag_4\n      jumpi\n      dup1\n      0xa19ed686\n      eq\n      tag_5\n      jumpi\n      dup1\n      0xa87430ba\n      eq\n      tag_6\n      jumpi\n      dup1\n      0xc2d8b28f\n      eq\n      tag_7\n      jumpi\n      dup1\n      0xfa107367\n      eq\n      tag_8\n      jumpi\n    tag_2:\n      0x00\n      dup1\n      revert\n        /* \"HitchHike.sol\":2547:3601  function requestRide(\r... */\n    tag_3:\n      tag_9\n      0x04\n      dup1\n      calldatasize\n      sub\n      dup2\n      add\n      swap1\n      tag_10\n      swap2\n      swap1\n      tag_11\n      jump\t// in\n    tag_10:\n      tag_12\n      jump\t// in\n    tag_9:\n      stop\n        /* \"HitchHike.sol\":2057:2296  function registerUser(string memory _name, UserType _userType) public userDoesNotExist(msg.sender) {\r... */\n    tag_4:\n      tag_13\n      0x04\n      dup1\n      calldatasize\n      sub\n      dup2\n      add\n      swap1\n      tag_14\n      swap2\n      swap1\n      tag_15\n      jump\t// in\n    tag_14:\n      tag_16\n      jump\t// in\n    tag_13:\n      stop\n        /* \"HitchHike.sol\":2338:2504  function loginUser() public userExists(msg.sender) {\r... */\n    tag_5:\n      tag_17\n      tag_18\n      jump\t// in\n    tag_17:\n      stop\n        /* \"HitchHike.sol\":825:869  mapping(address => UserProfile) public users */\n    tag_6:\n      tag_19\n      0x04\n      dup1\n      calldatasize\n      sub\n      dup2\n      add\n      swap1\n      tag_20\n      swap2\n      swap1\n      tag_21\n      jump\t// in\n    tag_20:\n      tag_22\n      jump\t// in\n    tag_19:\n      mload(0x40)\n      tag_23\n      swap4\n      swap3\n      swap2\n      swap1\n      tag_24\n      jump\t// in\n    tag_23:\n      mload(0x40)\n      dup1\n      swap2\n      sub\n      swap1\n      return\n        /* \"HitchHike.sol\":876:927  mapping(address => RideRequest) public rideRequests */\n    tag_7:\n      tag_25\n      0x04\n      dup1\n      calldatasize\n      sub\n      dup2\n      add\n      swap1\n      tag_26\n      swap2\n      swap1\n      tag_21\n      jump\t// in\n    tag_26:\n      tag_27\n      jump\t// in\n    tag_25:\n      mload(0x40)\n      tag_28\n      swap12\n      swap11\n      swap10\n      swap9\n      swap8\n      swap7\n      swap6\n      swap5\n      swap4\n      swap3\n      swap2\n      swap1\n      tag_29\n      jump\t// in\n    tag_28:\n      mload(0x40)\n      dup1\n      swap2\n      sub\n      swap1\n      return\n        /* \"HitchHike.sol\":934:984  mapping(address => RideDetails) public rideDetails */\n    tag_8:\n      tag_30\n      0x04\n      dup1\n      calldatasize\n      sub\n      dup2\n      add\n      swap1\n      tag_31\n      swap2\n      swap1\n      tag_21\n      jump\t// in\n    tag_31:\n      tag_32\n      jump\t// in\n    tag_30:\n      mload(0x40)\n      tag_33\n      swap6\n      swap5\n      swap4\n      swap3\n      swap2\n      swap1\n      tag_34\n      jump\t// in\n    tag_33:\n      mload(0x40)\n      dup1\n      swap2\n      sub\n      swap1\n      return\n        /* \"HitchHike.sol\":2547:3601  function requestRide(\r... */\n    tag_12:\n        /* \"HitchHike.sol\":1954:1955  0 */\n      0x00\n        /* \"HitchHike.sol\":1911:1956  users[msg.sender].walletAddress != address(0) */\n      0xffffffffffffffffffffffffffffffffffffffff\n      and\n        /* \"HitchHike.sol\":1911:1916  users */\n      0x00\n        /* \"HitchHike.sol\":1911:1928  users[msg.sender] */\n      dup1\n        /* \"HitchHike.sol\":1917:1927  msg.sender */\n      caller\n        /* \"HitchHike.sol\":1911:1928  users[msg.sender] */\n      0xffffffffffffffffffffffffffffffffffffffff\n      and\n      0xffffffffffffffffffffffffffffffffffffffff\n      and\n      dup2\n      mstore\n      0x20\n      add\n      swap1\n      dup2\n      mstore\n      0x20\n      add\n      0x00\n      keccak256\n        /* \"HitchHike.sol\":1911:1942  users[msg.sender].walletAddress */\n      0x01\n      add\n      0x00\n      swap1\n      sload\n      swap1\n      0x0100\n      exp\n      swap1\n      div\n      0xffffffffffffffffffffffffffffffffffffffff\n      and\n        /* \"HitchHike.sol\":1911:1956  users[msg.sender].walletAddress != address(0) */\n      0xffffffffffffffffffffffffffffffffffffffff\n      and\n      eq\n      iszero\n        /* \"HitchHike.sol\":1903:1989  require(users[msg.sender].walletAddress != address(0), \"You must register as a user.\") */\n      tag_36\n      jumpi\n      mload(0x40)\n      0x08c379a000000000000000000000000000000000000000000000000000000000\n      dup2\n      mstore\n      0x04\n      add\n      tag_37\n      swap1\n      tag_38\n      jump\t// in\n    tag_37:\n      mload(0x40)\n      dup1\n      swap2\n      sub\n      swap1\n      revert\n    tag_36:\n        /* \"HitchHike.sol\":2950:2951  0 */\n      0x00\n        /* \"HitchHike.sol\":2903:2952  rideRequests[msg.sender].hitchhiker == address(0) */\n      0xffffffffffffffffffffffffffffffffffffffff\n      and\n        /* \"HitchHike.sol\":2903:2915  rideRequests */\n      0x01\n        /* \"HitchHike.sol\":2903:2927  rideRequests[msg.sender] */\n      0x00\n        /* \"HitchHike.sol\":2916:2926  msg.sender */\n      caller\n        /* \"HitchHike.sol\":2903:2927  rideRequests[msg.sender] */\n      0xffffffffffffffffffffffffffffffffffffffff\n      and\n      0xffffffffffffffffffffffffffffffffffffffff\n      and\n      dup2\n      mstore\n      0x20\n      add\n      swap1\n      dup2\n      mstore\n      0x20\n      add\n      0x00\n      keccak256\n        /* \"HitchHike.sol\":2903:2938  rideRequests[msg.sender].hitchhiker */\n      0x00\n      add\n      0x00\n      swap1\n      sload\n      swap1\n      0x0100\n      exp\n      swap1\n      div\n      0xffffffffffffffffffffffffffffffffffffffff\n      and\n        /* \"HitchHike.sol\":2903:2952  rideRequests[msg.sender].hitchhiker == address(0) */\n      0xffffffffffffffffffffffffffffffffffffffff\n      and\n      eq\n        /* \"HitchHike.sol\":2895:2997  require(rideRequests[msg.sender].hitchhiker == address(0), \"You already have an active ride request.\") */\n      tag_40\n      jumpi\n      mload(0x40)\n      0x08c379a000000000000000000000000000000000000000000000000000000000\n      dup2\n      mstore\n      0x04\n      add\n      tag_41\n      swap1\n      tag_42\n      jump\t// in\n    tag_41:\n      mload(0x40)\n      dup1\n      swap2\n      sub\n      swap1\n      revert\n    tag_40:\n        /* \"HitchHike.sol\":3075:3445  RideRequest(\r... */\n      mload(0x40)\n      dup1\n      0x0160\n      add\n      0x40\n      mstore\n      dup1\n        /* \"HitchHike.sol\":3101:3111  msg.sender */\n      caller\n        /* \"HitchHike.sol\":3075:3445  RideRequest(\r... */\n      0xffffffffffffffffffffffffffffffffffffffff\n      and\n      dup2\n      mstore\n      0x20\n      add\n        /* \"HitchHike.sol\":3142:3143  0 */\n      0x00\n        /* \"HitchHike.sol\":3075:3445  RideRequest(\r... */\n      0xffffffffffffffffffffffffffffffffffffffff\n      and\n      dup2\n      mstore\n      0x20\n      add\n        /* \"HitchHike.sol\":3197:3213  _currentLocation */\n      dup11\n        /* \"HitchHike.sol\":3075:3445  RideRequest(\r... */\n      dup2\n      mstore\n      0x20\n      add\n        /* \"HitchHike.sol\":3228:3240  _destination */\n      dup10\n        /* \"HitchHike.sol\":3075:3445  RideRequest(\r... */\n      dup2\n      mstore\n      0x20\n      add\n        /* \"HitchHike.sol\":3255:3260  _cost */\n      dup9\n        /* \"HitchHike.sol\":3075:3445  RideRequest(\r... */\n      dup2\n      mstore\n      0x20\n      add\n        /* \"HitchHike.sol\":3275:3289  _estimatedTime */\n      dup8\n        /* \"HitchHike.sol\":3075:3445  RideRequest(\r... */\n      dup2\n      mstore\n      0x20\n      add\n        /* \"HitchHike.sol\":3304:3315  _isAccepted */\n      dup7\n        /* \"HitchHike.sol\":3075:3445  RideRequest(\r... */\n      iszero\n      iszero\n      dup2\n      mstore\n      0x20\n      add\n        /* \"HitchHike.sol\":3330:3342  _isCompleted */\n      dup6\n        /* \"HitchHike.sol\":3075:3445  RideRequest(\r... */\n      iszero\n      iszero\n      dup2\n      mstore\n      0x20\n      add\n        /* \"HitchHike.sol\":3357:3376  _passengerConfirmed */\n      dup5\n        /* \"HitchHike.sol\":3075:3445  RideRequest(\r... */\n      iszero\n      iszero\n      dup2\n      mstore\n      0x20\n      add\n        /* \"HitchHike.sol\":3391:3407  _driverConfirmed */\n      dup4\n        /* \"HitchHike.sol\":3075:3445  RideRequest(\r... */\n      iszero\n      iszero\n      dup2\n      mstore\n      0x20\n      add\n        /* \"HitchHike.sol\":3422:3434  _isCancelled */\n      dup3\n        /* \"HitchHike.sol\":3075:3445  RideRequest(\r... */\n      iszero\n      iszero\n      dup2\n      mstore\n      pop\n        /* \"HitchHike.sol\":3048:3060  rideRequests */\n      0x01\n        /* \"HitchHike.sol\":3048:3072  rideRequests[msg.sender] */\n      0x00\n        /* \"HitchHike.sol\":3061:3071  msg.sender */\n      caller\n        /* \"HitchHike.sol\":3048:3072  rideRequests[msg.sender] */\n      0xffffffffffffffffffffffffffffffffffffffff\n      and\n      0xffffffffffffffffffffffffffffffffffffffff\n      and\n      dup2\n      mstore\n      0x20\n      add\n      swap1\n      dup2\n      mstore\n      0x20\n      add\n      0x00\n      keccak256\n        /* \"HitchHike.sol\":3048:3445  rideRequests[msg.sender] = RideRequest(\r... */\n      0x00\n      dup3\n      add\n      mload\n      dup2\n      0x00\n      add\n      exp(0x0100, 0x00)\n      dup2\n      sload\n      dup2\n      0xffffffffffffffffffffffffffffffffffffffff\n      mul\n      not\n      and\n      swap1\n      dup4\n      0xffffffffffffffffffffffffffffffffffffffff\n      and\n      mul\n      or\n      swap1\n      sstore\n      pop\n      0x20\n      dup3\n      add\n      mload\n      dup2\n      0x01\n      add\n      exp(0x0100, 0x00)\n      dup2\n      sload\n      dup2\n      0xffffffffffffffffffffffffffffffffffffffff\n      mul\n      not\n      and\n      swap1\n      dup4\n      0xffffffffffffffffffffffffffffffffffffffff\n      and\n      mul\n      or\n      swap1\n      sstore\n      pop\n      0x40\n      dup3\n      add\n      mload\n      dup2\n      0x02\n      add\n      swap1\n      dup1\n      mload\n      swap1\n      0x20\n      add\n      swap1\n      tag_43\n      swap3\n      swap2\n      swap1\n      tag_44\n      jump\t// in\n    tag_43:\n      pop\n      0x60\n      dup3\n      add\n      mload\n      dup2\n      0x03\n      add\n      swap1\n      dup1\n      mload\n      swap1\n      0x20\n      add\n      swap1\n      tag_45\n      swap3\n      swap2\n      swap1\n      tag_44\n      jump\t// in\n    tag_45:\n      pop\n      0x80\n      dup3\n      add\n      mload\n      dup2\n      0x04\n      add\n      sstore\n      0xa0\n      dup3\n      add\n      mload\n      dup2\n      0x05\n      add\n      sstore\n      0xc0\n      dup3\n      add\n      mload\n      dup2\n      0x06\n      add\n      exp(0x0100, 0x00)\n      dup2\n      sload\n      dup2\n      0xff\n      mul\n      not\n      and\n      swap1\n      dup4\n      iszero\n      iszero\n      mul\n      or\n      swap1\n      sstore\n      pop\n      0xe0\n      dup3\n      add\n      mload\n      dup2\n      0x06\n      add\n      exp(0x0100, 0x01)\n      dup2\n      sload\n      dup2\n      0xff\n      mul\n      not\n      and\n      swap1\n      dup4\n      iszero\n      iszero\n      mul\n      or\n      swap1\n      sstore\n      pop\n      0x0100\n      dup3\n      add\n      mload\n      dup2\n      0x06\n      add\n      exp(0x0100, 0x02)\n      dup2\n      sload\n      dup2\n      0xff\n      mul\n      not\n      and\n      swap1\n      dup4\n      iszero\n      iszero\n      mul\n      or\n      swap1\n      sstore\n      pop\n      0x0120\n      dup3\n      add\n      mload\n      dup2\n      0x06\n      add\n      exp(0x0100, 0x03)\n      dup2\n      sload\n      dup2\n      0xff\n      mul\n      not\n      and\n      swap1\n      dup4\n      iszero\n      iszero\n      mul\n      or\n      swap1\n      sstore\n      pop\n      0x0140\n      dup3\n      add\n      mload\n      dup2\n      0x06\n      add\n      exp(0x0100, 0x04)\n      dup2\n      sload\n      dup2\n      0xff\n      mul\n      not\n      and\n      swap1\n      dup4\n      iszero\n      iszero\n      mul\n      or\n      swap1\n      sstore\n      pop\n      swap1\n      pop\n      pop\n        /* \"HitchHike.sol\":3527:3537  msg.sender */\n      caller\n        /* \"HitchHike.sol\":3513:3593  RideRequested(msg.sender, _currentLocation, _destination, _cost, _estimatedTime) */\n      0xffffffffffffffffffffffffffffffffffffffff\n      and\n      0x3324f8f8b2e4e967b053a9136eefa38b219fe4acc9016838afd9c5f1540e2332\n        /* \"HitchHike.sol\":3539:3555  _currentLocation */\n      dup11\n        /* \"HitchHike.sol\":3557:3569  _destination */\n      dup11\n        /* \"HitchHike.sol\":3571:3576  _cost */\n      dup11\n        /* \"HitchHike.sol\":3578:3592  _estimatedTime */\n      dup11\n        /* \"HitchHike.sol\":3513:3593  RideRequested(msg.sender, _currentLocation, _destination, _cost, _estimatedTime) */\n      mload(0x40)\n      tag_46\n      swap5\n      swap4\n      swap3\n      swap2\n      swap1\n      tag_47\n      jump\t// in\n    tag_46:\n      mload(0x40)\n      dup1\n      swap2\n      sub\n      swap1\n      log2\n        /* \"HitchHike.sol\":2547:3601  function requestRide(\r... */\n      pop\n      pop\n      pop\n      pop\n      pop\n      pop\n      pop\n      pop\n      pop\n      jump\t// out\n        /* \"HitchHike.sol\":2057:2296  function registerUser(string memory _name, UserType _userType) public userDoesNotExist(msg.sender) {\r... */\n    tag_16:\n        /* \"HitchHike.sol\":2144:2154  msg.sender */\n      caller\n        /* \"HitchHike.sol\":1644:1645  0 */\n      0x00\n        /* \"HitchHike.sol\":1597:1646  users[_walletAddress].walletAddress == address(0) */\n      0xffffffffffffffffffffffffffffffffffffffff\n      and\n        /* \"HitchHike.sol\":1597:1602  users */\n      0x00\n        /* \"HitchHike.sol\":1597:1618  users[_walletAddress] */\n      dup1\n        /* \"HitchHike.sol\":1603:1617  _walletAddress */\n      dup4\n        /* \"HitchHike.sol\":1597:1618  users[_walletAddress] */\n      0xffffffffffffffffffffffffffffffffffffffff\n      and\n      0xffffffffffffffffffffffffffffffffffffffff\n      and\n      dup2\n      mstore\n      0x20\n      add\n      swap1\n      dup2\n      mstore\n      0x20\n      add\n      0x00\n      keccak256\n        /* \"HitchHike.sol\":1597:1632  users[_walletAddress].walletAddress */\n      0x01\n      add\n      0x00\n      swap1\n      sload\n      swap1\n      0x0100\n      exp\n      swap1\n      div\n      0xffffffffffffffffffffffffffffffffffffffff\n      and\n        /* \"HitchHike.sol\":1597:1646  users[_walletAddress].walletAddress == address(0) */\n      0xffffffffffffffffffffffffffffffffffffffff\n      and\n      eq\n        /* \"HitchHike.sol\":1589:1671  require(users[_walletAddress].walletAddress == address(0), \"User already exists.\") */\n      tag_49\n      jumpi\n      mload(0x40)\n      0x08c379a000000000000000000000000000000000000000000000000000000000\n      dup2\n      mstore\n      0x04\n      add\n      tag_50\n      swap1\n      tag_51\n      jump\t// in\n    tag_50:\n      mload(0x40)\n      dup1\n      swap2\n      sub\n      swap1\n      revert\n    tag_49:\n        /* \"HitchHike.sol\":2187:2228  UserProfile(_name, msg.sender, _userType) */\n      mload(0x40)\n      dup1\n      0x60\n      add\n      0x40\n      mstore\n      dup1\n        /* \"HitchHike.sol\":2199:2204  _name */\n      dup5\n        /* \"HitchHike.sol\":2187:2228  UserProfile(_name, msg.sender, _userType) */\n      dup2\n      mstore\n      0x20\n      add\n        /* \"HitchHike.sol\":2206:2216  msg.sender */\n      caller\n        /* \"HitchHike.sol\":2187:2228  UserProfile(_name, msg.sender, _userType) */\n      0xffffffffffffffffffffffffffffffffffffffff\n      and\n      dup2\n      mstore\n      0x20\n      add\n        /* \"HitchHike.sol\":2218:2227  _userType */\n      dup4\n        /* \"HitchHike.sol\":2187:2228  UserProfile(_name, msg.sender, _userType) */\n      0x01\n      dup2\n      gt\n      iszero\n      tag_53\n      jumpi\n      mstore(0x00, 0x4e487b7100000000000000000000000000000000000000000000000000000000)\n      mstore(0x04, 0x21)\n      revert(0x00, 0x24)\n    tag_53:\n      dup2\n      mstore\n      pop\n        /* \"HitchHike.sol\":2167:2172  users */\n      0x00\n        /* \"HitchHike.sol\":2167:2184  users[msg.sender] */\n      dup1\n        /* \"HitchHike.sol\":2173:2183  msg.sender */\n      caller\n        /* \"HitchHike.sol\":2167:2184  users[msg.sender] */\n      0xffffffffffffffffffffffffffffffffffffffff\n      and\n      0xffffffffffffffffffffffffffffffffffffffff\n      and\n      dup2\n      mstore\n      0x20\n      add\n      swap1\n      dup2\n      mstore\n      0x20\n      add\n      0x00\n      keccak256\n        /* \"HitchHike.sol\":2167:2228  users[msg.sender] = UserProfile(_name, msg.sender, _userType) */\n      0x00\n      dup3\n      add\n      mload\n      dup2\n      0x00\n      add\n      swap1\n      dup1\n      mload\n      swap1\n      0x20\n      add\n      swap1\n      tag_54\n      swap3\n      swap2\n      swap1\n      tag_44\n      jump\t// in\n    tag_54:\n      pop\n      0x20\n      dup3\n      add\n      mload\n      dup2\n      0x01\n      add\n      exp(0x0100, 0x00)\n      dup2\n      sload\n      dup2\n      0xffffffffffffffffffffffffffffffffffffffff\n      mul\n      not\n      and\n      swap1\n      dup4\n      0xffffffffffffffffffffffffffffffffffffffff\n      and\n      mul\n      or\n      swap1\n      sstore\n      pop\n      0x40\n      dup3\n      add\n      mload\n      dup2\n      0x01\n      add\n      exp(0x0100, 0x14)\n      dup2\n      sload\n      dup2\n      0xff\n      mul\n      not\n      and\n      swap1\n      dup4\n      0x01\n      dup2\n      gt\n      iszero\n      tag_55\n      jumpi\n      mstore(0x00, 0x4e487b7100000000000000000000000000000000000000000000000000000000)\n      mstore(0x04, 0x21)\n      revert(0x00, 0x24)\n    tag_55:\n      mul\n      or\n      swap1\n      sstore\n      pop\n      swap1\n      pop\n      pop\n        /* \"HitchHike.sol\":2259:2269  msg.sender */\n      caller\n        /* \"HitchHike.sol\":2244:2288  UserRegistered(msg.sender, _name, _userType) */\n      0xffffffffffffffffffffffffffffffffffffffff\n      and\n      0xc2e5d5da58bd71d1a2d14cdef02a4256d971b728088f8190d067ccfbae3bd73e\n        /* \"HitchHike.sol\":2271:2276  _name */\n      dup5\n        /* \"HitchHike.sol\":2278:2287  _userType */\n      dup5\n        /* \"HitchHike.sol\":2244:2288  UserRegistered(msg.sender, _name, _userType) */\n      mload(0x40)\n      tag_56\n      swap3\n      swap2\n      swap1\n      tag_57\n      jump\t// in\n    tag_56:\n      mload(0x40)\n      dup1\n      swap2\n      sub\n      swap1\n      log2\n        /* \"HitchHike.sol\":2057:2296  function registerUser(string memory _name, UserType _userType) public userDoesNotExist(msg.sender) {\r... */\n      pop\n      pop\n      pop\n      jump\t// out\n        /* \"HitchHike.sol\":2338:2504  function loginUser() public userExists(msg.sender) {\r... */\n    tag_18:\n        /* \"HitchHike.sol\":2377:2387  msg.sender */\n      caller\n        /* \"HitchHike.sol\":1809:1810  0 */\n      0x00\n        /* \"HitchHike.sol\":1762:1811  users[_walletAddress].walletAddress != address(0) */\n      0xffffffffffffffffffffffffffffffffffffffff\n      and\n        /* \"HitchHike.sol\":1762:1767  users */\n      0x00\n        /* \"HitchHike.sol\":1762:1783  users[_walletAddress] */\n      dup1\n        /* \"HitchHike.sol\":1768:1782  _walletAddress */\n      dup4\n        /* \"HitchHike.sol\":1762:1783  users[_walletAddress] */\n      0xffffffffffffffffffffffffffffffffffffffff\n      and\n      0xffffffffffffffffffffffffffffffffffffffff\n      and\n      dup2\n      mstore\n      0x20\n      add\n      swap1\n      dup2\n      mstore\n      0x20\n      add\n      0x00\n      keccak256\n        /* \"HitchHike.sol\":1762:1797  users[_walletAddress].walletAddress */\n      0x01\n      add\n      0x00\n      swap1\n      sload\n      swap1\n      0x0100\n      exp\n      swap1\n      div\n      0xffffffffffffffffffffffffffffffffffffffff\n      and\n        /* \"HitchHike.sol\":1762:1811  users[_walletAddress].walletAddress != address(0) */\n      0xffffffffffffffffffffffffffffffffffffffff\n      and\n      eq\n      iszero\n        /* \"HitchHike.sol\":1754:1836  require(users[_walletAddress].walletAddress != address(0), \"User does not exist.\") */\n      tag_59\n      jumpi\n      mload(0x40)\n      0x08c379a000000000000000000000000000000000000000000000000000000000\n      dup2\n      mstore\n      0x04\n      add\n      tag_60\n      swap1\n      tag_61\n      jump\t// in\n    tag_60:\n      mload(0x40)\n      dup1\n      swap2\n      sub\n      swap1\n      revert\n    tag_59:\n        /* \"HitchHike.sol\":2400:2417  UserType userType */\n      0x00\n        /* \"HitchHike.sol\":2420:2425  users */\n      dup1\n        /* \"HitchHike.sol\":2420:2437  users[msg.sender] */\n      0x00\n        /* \"HitchHike.sol\":2426:2436  msg.sender */\n      caller\n        /* \"HitchHike.sol\":2420:2437  users[msg.sender] */\n      0xffffffffffffffffffffffffffffffffffffffff\n      and\n      0xffffffffffffffffffffffffffffffffffffffff\n      and\n      dup2\n      mstore\n      0x20\n      add\n      swap1\n      dup2\n      mstore\n      0x20\n      add\n      0x00\n      keccak256\n        /* \"HitchHike.sol\":2420:2446  users[msg.sender].userType */\n      0x01\n      add\n      0x14\n      swap1\n      sload\n      swap1\n      0x0100\n      exp\n      swap1\n      div\n      0xff\n      and\n        /* \"HitchHike.sol\":2400:2446  UserType userType = users[msg.sender].userType */\n      swap1\n      pop\n        /* \"HitchHike.sol\":2475:2485  msg.sender */\n      caller\n        /* \"HitchHike.sol\":2462:2496  UserLoggedIn(msg.sender, userType) */\n      0xffffffffffffffffffffffffffffffffffffffff\n      and\n      0xc1e1f43082cc0942da58f0dbc1b91c167501c02c01e62ca603480bbded03b5f3\n        /* \"HitchHike.sol\":2487:2495  userType */\n      dup3\n        /* \"HitchHike.sol\":2462:2496  UserLoggedIn(msg.sender, userType) */\n      mload(0x40)\n      tag_63\n      swap2\n      swap1\n      tag_64\n      jump\t// in\n    tag_63:\n      mload(0x40)\n      dup1\n      swap2\n      sub\n      swap1\n      log2\n        /* \"HitchHike.sol\":1847:1848  _ */\n      pop\n        /* \"HitchHike.sol\":2338:2504  function loginUser() public userExists(msg.sender) {\r... */\n      pop\n      jump\t// out\n        /* \"HitchHike.sol\":825:869  mapping(address => UserProfile) public users */\n    tag_22:\n      mstore(0x20, 0x00)\n      dup1\n      0x00\n      mstore\n      keccak256(0x00, 0x40)\n      0x00\n      swap2\n      pop\n      swap1\n      pop\n      dup1\n      0x00\n      add\n      dup1\n      sload\n      tag_65\n      swap1\n      tag_66\n      jump\t// in\n    tag_65:\n      dup1\n      0x1f\n      add\n      0x20\n      dup1\n      swap2\n      div\n      mul\n      0x20\n      add\n      mload(0x40)\n      swap1\n      dup2\n      add\n      0x40\n      mstore\n      dup1\n      swap3\n      swap2\n      swap1\n      dup2\n      dup2\n      mstore\n      0x20\n      add\n      dup3\n      dup1\n      sload\n      tag_67\n      swap1\n      tag_66\n      jump\t// in\n    tag_67:\n      dup1\n      iszero\n      tag_68\n      jumpi\n      dup1\n      0x1f\n      lt\n      tag_69\n      jumpi\n      0x0100\n      dup1\n      dup4\n      sload\n      div\n      mul\n      dup4\n      mstore\n      swap2\n      0x20\n      add\n      swap2\n      jump(tag_68)\n    tag_69:\n      dup3\n      add\n      swap2\n      swap1\n      0x00\n      mstore\n      keccak256(0x00, 0x20)\n      swap1\n    tag_70:\n      dup2\n      sload\n      dup2\n      mstore\n      swap1\n      0x01\n      add\n      swap1\n      0x20\n      add\n      dup1\n      dup4\n      gt\n      tag_70\n      jumpi\n      dup3\n      swap1\n      sub\n      0x1f\n      and\n      dup3\n      add\n      swap2\n    tag_68:\n      pop\n      pop\n      pop\n      pop\n      pop\n      swap1\n      dup1\n      0x01\n      add\n      0x00\n      swap1\n      sload\n      swap1\n      0x0100\n      exp\n      swap1\n      div\n      0xffffffffffffffffffffffffffffffffffffffff\n      and\n      swap1\n      dup1\n      0x01\n      add\n      0x14\n      swap1\n      sload\n      swap1\n      0x0100\n      exp\n      swap1\n      div\n      0xff\n      and\n      swap1\n      pop\n      dup4\n      jump\t// out\n        /* \"HitchHike.sol\":876:927  mapping(address => RideRequest) public rideRequests */\n    tag_27:\n      mstore(0x20, 0x01)\n      dup1\n      0x00\n      mstore\n      keccak256(0x00, 0x40)\n      0x00\n      swap2\n      pop\n      swap1\n      pop\n      dup1\n      0x00\n      add\n      0x00\n      swap1\n      sload\n      swap1\n      0x0100\n      exp\n      swap1\n      div\n      0xffffffffffffffffffffffffffffffffffffffff\n      and\n      swap1\n      dup1\n      0x01\n      add\n      0x00\n      swap1\n      sload\n      swap1\n      0x0100\n      exp\n      swap1\n      div\n      0xffffffffffffffffffffffffffffffffffffffff\n      and\n      swap1\n      dup1\n      0x02\n      add\n      dup1\n      sload\n      tag_71\n      swap1\n      tag_66\n      jump\t// in\n    tag_71:\n      dup1\n      0x1f\n      add\n      0x20\n      dup1\n      swap2\n      div\n      mul\n      0x20\n      add\n      mload(0x40)\n      swap1\n      dup2\n      add\n      0x40\n      mstore\n      dup1\n      swap3\n      swap2\n      swap1\n      dup2\n      dup2\n      mstore\n      0x20\n      add\n      dup3\n      dup1\n      sload\n      tag_72\n      swap1\n      tag_66\n      jump\t// in\n    tag_72:\n      dup1\n      iszero\n      tag_73\n      jumpi\n      dup1\n      0x1f\n      lt\n      tag_74\n      jumpi\n      0x0100\n      dup1\n      dup4\n      sload\n      div\n      mul\n      dup4\n      mstore\n      swap2\n      0x20\n      add\n      swap2\n      jump(tag_73)\n    tag_74:\n      dup3\n      add\n      swap2\n      swap1\n      0x00\n      mstore\n      keccak256(0x00, 0x20)\n      swap1\n    tag_75:\n      dup2\n      sload\n      dup2\n      mstore\n      swap1\n      0x01\n      add\n      swap1\n      0x20\n      add\n      dup1\n      dup4\n      gt\n      tag_75\n      jumpi\n      dup3\n      swap1\n      sub\n      0x1f\n      and\n      dup3\n      add\n      swap2\n    tag_73:\n      pop\n      pop\n      pop\n      pop\n      pop\n      swap1\n      dup1\n      0x03\n      add\n      dup1\n      sload\n      tag_76\n      swap1\n      tag_66\n      jump\t// in\n    tag_76:\n      dup1\n      0x1f\n      add\n      0x20\n      dup1\n      swap2\n      div\n      mul\n      0x20\n      add\n      mload(0x40)\n      swap1\n      dup2\n      add\n      0x40\n      mstore\n      dup1\n      swap3\n      swap2\n      swap1\n      dup2\n      dup2\n      mstore\n      0x20\n      add\n      dup3\n      dup1\n      sload\n      tag_77\n      swap1\n      tag_66\n      jump\t// in\n    tag_77:\n      dup1\n      iszero\n      tag_78\n      jumpi\n      dup1\n      0x1f\n      lt\n      tag_79\n      jumpi\n      0x0100\n      dup1\n      dup4\n      sload\n      div\n      mul\n      dup4\n      mstore\n      swap2\n      0x20\n      add\n      swap2\n      jump(tag_78)\n    tag_79:\n      dup3\n      add\n      swap2\n      swap1\n      0x00\n      mstore\n      keccak256(0x00, 0x20)\n      swap1\n    tag_80:\n      dup2\n      sload\n      dup2\n      mstore\n      swap1\n      0x01\n      add\n      swap1\n      0x20\n      add\n      dup1\n      dup4\n      gt\n      tag_80\n      jumpi\n      dup3\n      swap1\n      sub\n      0x1f\n      and\n      dup3\n      add\n      swap2\n    tag_78:\n      pop\n      pop\n      pop\n      pop\n      pop\n      swap1\n      dup1\n      0x04\n      add\n      sload\n      swap1\n      dup1\n      0x05\n      add\n      sload\n      swap1\n      dup1\n      0x06\n      add\n      0x00\n      swap1\n      sload\n      swap1\n      0x0100\n      exp\n      swap1\n      div\n      0xff\n      and\n      swap1\n      dup1\n      0x06\n      add\n      0x01\n      swap1\n      sload\n      swap1\n      0x0100\n      exp\n      swap1\n      div\n      0xff\n      and\n      swap1\n      dup1\n      0x06\n      add\n      0x02\n      swap1\n      sload\n      swap1\n      0x0100\n      exp\n      swap1\n      div\n      0xff\n      and\n      swap1\n      dup1\n      0x06\n      add\n      0x03\n      swap1\n      sload\n      swap1\n      0x0100\n      exp\n      swap1\n      div\n      0xff\n      and\n      swap1\n      dup1\n      0x06\n      add\n      0x04\n      swap1\n      sload\n      swap1\n      0x0100\n      exp\n      swap1\n      div\n      0xff\n      and\n      swap1\n      pop\n      dup12\n      jump\t// out\n        /* \"HitchHike.sol\":934:984  mapping(address => RideDetails) public rideDetails */\n    tag_32:\n      mstore(0x20, 0x02)\n      dup1\n      0x00\n      mstore\n      keccak256(0x00, 0x40)\n      0x00\n      swap2\n      pop\n      swap1\n      pop\n      dup1\n      0x00\n      add\n      0x00\n      swap1\n      sload\n      swap1\n      0x0100\n      exp\n      swap1\n      div\n      0xffffffffffffffffffffffffffffffffffffffff\n      and\n      swap1\n      dup1\n      0x01\n      add\n      dup1\n      sload\n      tag_81\n      swap1\n      tag_66\n      jump\t// in\n    tag_81:\n      dup1\n      0x1f\n      add\n      0x20\n      dup1\n      swap2\n      div\n      mul\n      0x20\n      add\n      mload(0x40)\n      swap1\n      dup2\n      add\n      0x40\n      mstore\n      dup1\n      swap3\n      swap2\n      swap1\n      dup2\n      dup2\n      mstore\n      0x20\n      add\n      dup3\n      dup1\n      sload\n      tag_82\n      swap1\n      tag_66\n      jump\t// in\n    tag_82:\n      dup1\n      iszero\n      tag_83\n      jumpi\n      dup1\n      0x1f\n      lt\n      tag_84\n      jumpi\n      0x0100\n      dup1\n      dup4\n      sload\n      div\n      mul\n      dup4\n      mstore\n      swap2\n      0x20\n      add\n      swap2\n      jump(tag_83)\n    tag_84:\n      dup3\n      add\n      swap2\n      swap1\n      0x00\n      mstore\n      keccak256(0x00, 0x20)\n      swap1\n    tag_85:\n      dup2\n      sload\n      dup2\n      mstore\n      swap1\n      0x01\n      add\n      swap1\n      0x20\n      add\n      dup1\n      dup4\n      gt\n      tag_85\n      jumpi\n      dup3\n      swap1\n      sub\n      0x1f\n      and\n      dup3\n      add\n      swap2\n    tag_83:\n      pop\n      pop\n      pop\n      pop\n      pop\n      swap1\n      dup1\n      0x02\n      add\n      dup1\n      sload\n      tag_86\n      swap1\n      tag_66\n      jump\t// in\n    tag_86:\n      dup1\n      0x1f\n      add\n      0x20\n      dup1\n      swap2\n      div\n      mul\n      0x20\n      add\n      mload(0x40)\n      swap1\n      dup2\n      add\n      0x40\n      mstore\n      dup1\n      swap3\n      swap2\n      swap1\n      dup2\n      dup2\n      mstore\n      0x20\n      add\n      dup3\n      dup1\n      sload\n      tag_87\n      swap1\n      tag_66\n      jump\t// in\n    tag_87:\n      dup1\n      iszero\n      tag_88\n      jumpi\n      dup1\n      0x1f\n      lt\n      tag_89\n      jumpi\n      0x0100\n      dup1\n      dup4\n      sload\n      div\n      mul\n      dup4\n      mstore\n      swap2\n      0x20\n      add\n      swap2\n      jump(tag_88)\n    tag_89:\n      dup3\n      add\n      swap2\n      swap1\n      0x00\n      mstore\n      keccak256(0x00, 0x20)\n      swap1\n    tag_90:\n      dup2\n      sload\n      dup2\n      mstore\n      swap1\n      0x01\n      add\n      swap1\n      0x20\n      add\n      dup1\n      dup4\n      gt\n      tag_90\n      jumpi\n      dup3\n      swap1\n      sub\n      0x1f\n      and\n      dup3\n      add\n      swap2\n    tag_88:\n      pop\n      pop\n      pop\n      pop\n      pop\n      swap1\n      dup1\n      0x03\n      add\n      sload\n      swap1\n      dup1\n      0x04\n      add\n      sload\n      swap1\n      pop\n      dup6\n      jump\t// out\n    tag_44:\n      dup3\n      dup1\n      sload\n      tag_91\n      swap1\n      tag_66\n      jump\t// in\n    tag_91:\n      swap1\n      0x00\n      mstore\n      keccak256(0x00, 0x20)\n      swap1\n      0x1f\n      add\n      0x20\n      swap1\n      div\n      dup2\n      add\n      swap3\n      dup3\n      tag_93\n      jumpi\n      0x00\n      dup6\n      sstore\n      jump(tag_92)\n    tag_93:\n      dup3\n      0x1f\n      lt\n      tag_94\n      jumpi\n      dup1\n      mload\n      not(0xff)\n      and\n      dup4\n      dup1\n      add\n      or\n      dup6\n      sstore\n      jump(tag_92)\n    tag_94:\n      dup3\n      dup1\n      add\n      0x01\n      add\n      dup6\n      sstore\n      dup3\n      iszero\n      tag_92\n      jumpi\n      swap2\n      dup3\n      add\n    tag_95:\n      dup3\n      dup2\n      gt\n      iszero\n      tag_96\n      jumpi\n      dup3\n      mload\n      dup3\n      sstore\n      swap2\n      0x20\n      add\n      swap2\n      swap1\n      0x01\n      add\n      swap1\n      jump(tag_95)\n    tag_96:\n    tag_92:\n      pop\n      swap1\n      pop\n      tag_97\n      swap2\n      swap1\n      tag_98\n      jump\t// in\n    tag_97:\n      pop\n      swap1\n      jump\t// out\n    tag_98:\n    tag_99:\n      dup1\n      dup3\n      gt\n      iszero\n      tag_100\n      jumpi\n      0x00\n      dup2\n      0x00\n      swap1\n      sstore\n      pop\n      0x01\n      add\n      jump(tag_99)\n    tag_100:\n      pop\n      swap1\n      jump\t// out\n        /* \"#utility.yul\":7:351   */\n    tag_102:\n      0x00\n        /* \"#utility.yul\":110:175   */\n      tag_104\n        /* \"#utility.yul\":125:174   */\n      tag_105\n        /* \"#utility.yul\":167:173   */\n      dup5\n        /* \"#utility.yul\":125:174   */\n      tag_106\n      jump\t// in\n    tag_105:\n        /* \"#utility.yul\":110:175   */\n      tag_107\n      jump\t// in\n    tag_104:\n        /* \"#utility.yul\":101:175   */\n      swap1\n      pop\n        /* \"#utility.yul\":198:204   */\n      dup3\n        /* \"#utility.yul\":191:196   */\n      dup2\n        /* \"#utility.yul\":184:205   */\n      mstore\n        /* \"#utility.yul\":236:240   */\n      0x20\n        /* \"#utility.yul\":229:234   */\n      dup2\n        /* \"#utility.yul\":225:241   */\n      add\n        /* \"#utility.yul\":274:277   */\n      dup5\n        /* \"#utility.yul\":265:271   */\n      dup5\n        /* \"#utility.yul\":260:263   */\n      dup5\n        /* \"#utility.yul\":256:272   */\n      add\n        /* \"#utility.yul\":253:278   */\n      gt\n        /* \"#utility.yul\":250:252   */\n      iszero\n      tag_108\n      jumpi\n        /* \"#utility.yul\":291:292   */\n      0x00\n        /* \"#utility.yul\":288:289   */\n      dup1\n        /* \"#utility.yul\":281:293   */\n      revert\n        /* \"#utility.yul\":250:252   */\n    tag_108:\n        /* \"#utility.yul\":304:345   */\n      tag_109\n        /* \"#utility.yul\":338:344   */\n      dup5\n        /* \"#utility.yul\":333:336   */\n      dup3\n        /* \"#utility.yul\":328:331   */\n      dup6\n        /* \"#utility.yul\":304:345   */\n      tag_110\n      jump\t// in\n    tag_109:\n        /* \"#utility.yul\":91:351   */\n      pop\n      swap4\n      swap3\n      pop\n      pop\n      pop\n      jump\t// out\n        /* \"#utility.yul\":357:496   */\n    tag_111:\n      0x00\n        /* \"#utility.yul\":441:447   */\n      dup2\n        /* \"#utility.yul\":428:448   */\n      calldataload\n        /* \"#utility.yul\":419:448   */\n      swap1\n      pop\n        /* \"#utility.yul\":457:490   */\n      tag_113\n        /* \"#utility.yul\":484:489   */\n      dup2\n        /* \"#utility.yul\":457:490   */\n      tag_114\n      jump\t// in\n    tag_113:\n        /* \"#utility.yul\":409:496   */\n      swap3\n      swap2\n      pop\n      pop\n      jump\t// out\n        /* \"#utility.yul\":502:635   */\n    tag_115:\n      0x00\n        /* \"#utility.yul\":583:589   */\n      dup2\n        /* \"#utility.yul\":570:590   */\n      calldataload\n        /* \"#utility.yul\":561:590   */\n      swap1\n      pop\n        /* \"#utility.yul\":599:629   */\n      tag_117\n        /* \"#utility.yul\":623:628   */\n      dup2\n        /* \"#utility.yul\":599:629   */\n      tag_118\n      jump\t// in\n    tag_117:\n        /* \"#utility.yul\":551:635   */\n      swap3\n      swap2\n      pop\n      pop\n      jump\t// out\n        /* \"#utility.yul\":641:802   */\n    tag_119:\n      0x00\n        /* \"#utility.yul\":736:742   */\n      dup2\n        /* \"#utility.yul\":723:743   */\n      calldataload\n        /* \"#utility.yul\":714:743   */\n      swap1\n      pop\n        /* \"#utility.yul\":752:796   */\n      tag_121\n        /* \"#utility.yul\":790:795   */\n      dup2\n        /* \"#utility.yul\":752:796   */\n      tag_122\n      jump\t// in\n    tag_121:\n        /* \"#utility.yul\":704:802   */\n      swap3\n      swap2\n      pop\n      pop\n      jump\t// out\n        /* \"#utility.yul\":822:1095   */\n    tag_123:\n      0x00\n        /* \"#utility.yul\":927:930   */\n      dup3\n        /* \"#utility.yul\":920:924   */\n      0x1f\n        /* \"#utility.yul\":912:918   */\n      dup4\n        /* \"#utility.yul\":908:925   */\n      add\n        /* \"#utility.yul\":904:931   */\n      slt\n        /* \"#utility.yul\":894:896   */\n      tag_125\n      jumpi\n        /* \"#utility.yul\":945:946   */\n      0x00\n        /* \"#utility.yul\":942:943   */\n      dup1\n        /* \"#utility.yul\":935:947   */\n      revert\n        /* \"#utility.yul\":894:896   */\n    tag_125:\n        /* \"#utility.yul\":985:991   */\n      dup2\n        /* \"#utility.yul\":972:992   */\n      calldataload\n        /* \"#utility.yul\":1010:1089   */\n      tag_126\n        /* \"#utility.yul\":1085:1088   */\n      dup5\n        /* \"#utility.yul\":1077:1083   */\n      dup3\n        /* \"#utility.yul\":1070:1074   */\n      0x20\n        /* \"#utility.yul\":1062:1068   */\n      dup7\n        /* \"#utility.yul\":1058:1075   */\n      add\n        /* \"#utility.yul\":1010:1089   */\n      tag_102\n      jump\t// in\n    tag_126:\n        /* \"#utility.yul\":1001:1089   */\n      swap2\n      pop\n        /* \"#utility.yul\":884:1095   */\n      pop\n      swap3\n      swap2\n      pop\n      pop\n      jump\t// out\n        /* \"#utility.yul\":1101:1240   */\n    tag_127:\n      0x00\n        /* \"#utility.yul\":1185:1191   */\n      dup2\n        /* \"#utility.yul\":1172:1192   */\n      calldataload\n        /* \"#utility.yul\":1163:1192   */\n      swap1\n      pop\n        /* \"#utility.yul\":1201:1234   */\n      tag_129\n        /* \"#utility.yul\":1228:1233   */\n      dup2\n        /* \"#utility.yul\":1201:1234   */\n      tag_130\n      jump\t// in\n    tag_129:\n        /* \"#utility.yul\":1153:1240   */\n      swap3\n      swap2\n      pop\n      pop\n      jump\t// out\n        /* \"#utility.yul\":1246:1508   */\n    tag_21:\n      0x00\n        /* \"#utility.yul\":1354:1356   */\n      0x20\n        /* \"#utility.yul\":1342:1351   */\n      dup3\n        /* \"#utility.yul\":1333:1340   */\n      dup5\n        /* \"#utility.yul\":1329:1352   */\n      sub\n        /* \"#utility.yul\":1325:1357   */\n      slt\n        /* \"#utility.yul\":1322:1324   */\n      iszero\n      tag_132\n      jumpi\n        /* \"#utility.yul\":1370:1371   */\n      0x00\n        /* \"#utility.yul\":1367:1368   */\n      dup1\n        /* \"#utility.yul\":1360:1372   */\n      revert\n        /* \"#utility.yul\":1322:1324   */\n    tag_132:\n        /* \"#utility.yul\":1413:1414   */\n      0x00\n        /* \"#utility.yul\":1438:1491   */\n      tag_133\n        /* \"#utility.yul\":1483:1490   */\n      dup5\n        /* \"#utility.yul\":1474:1480   */\n      dup3\n        /* \"#utility.yul\":1463:1472   */\n      dup6\n        /* \"#utility.yul\":1459:1481   */\n      add\n        /* \"#utility.yul\":1438:1491   */\n      tag_111\n      jump\t// in\n    tag_133:\n        /* \"#utility.yul\":1428:1491   */\n      swap2\n      pop\n        /* \"#utility.yul\":1384:1501   */\n      pop\n        /* \"#utility.yul\":1312:1508   */\n      swap3\n      swap2\n      pop\n      pop\n      jump\t// out\n        /* \"#utility.yul\":1514:2056   */\n    tag_15:\n      0x00\n      dup1\n        /* \"#utility.yul\":1660:1662   */\n      0x40\n        /* \"#utility.yul\":1648:1657   */\n      dup4\n        /* \"#utility.yul\":1639:1646   */\n      dup6\n        /* \"#utility.yul\":1635:1658   */\n      sub\n        /* \"#utility.yul\":1631:1663   */\n      slt\n        /* \"#utility.yul\":1628:1630   */\n      iszero\n      tag_135\n      jumpi\n        /* \"#utility.yul\":1676:1677   */\n      0x00\n        /* \"#utility.yul\":1673:1674   */\n      dup1\n        /* \"#utility.yul\":1666:1678   */\n      revert\n        /* \"#utility.yul\":1628:1630   */\n    tag_135:\n        /* \"#utility.yul\":1747:1748   */\n      0x00\n        /* \"#utility.yul\":1736:1745   */\n      dup4\n        /* \"#utility.yul\":1732:1749   */\n      add\n        /* \"#utility.yul\":1719:1750   */\n      calldataload\n        /* \"#utility.yul\":1777:1795   */\n      0xffffffffffffffff\n        /* \"#utility.yul\":1769:1775   */\n      dup2\n        /* \"#utility.yul\":1766:1796   */\n      gt\n        /* \"#utility.yul\":1763:1765   */\n      iszero\n      tag_136\n      jumpi\n        /* \"#utility.yul\":1809:1810   */\n      0x00\n        /* \"#utility.yul\":1806:1807   */\n      dup1\n        /* \"#utility.yul\":1799:1811   */\n      revert\n        /* \"#utility.yul\":1763:1765   */\n    tag_136:\n        /* \"#utility.yul\":1837:1900   */\n      tag_137\n        /* \"#utility.yul\":1892:1899   */\n      dup6\n        /* \"#utility.yul\":1883:1889   */\n      dup3\n        /* \"#utility.yul\":1872:1881   */\n      dup7\n        /* \"#utility.yul\":1868:1890   */\n      add\n        /* \"#utility.yul\":1837:1900   */\n      tag_123\n      jump\t// in\n    tag_137:\n        /* \"#utility.yul\":1827:1900   */\n      swap3\n      pop\n        /* \"#utility.yul\":1690:1910   */\n      pop\n        /* \"#utility.yul\":1949:1951   */\n      0x20\n        /* \"#utility.yul\":1975:2039   */\n      tag_138\n        /* \"#utility.yul\":2031:2038   */\n      dup6\n        /* \"#utility.yul\":2022:2028   */\n      dup3\n        /* \"#utility.yul\":2011:2020   */\n      dup7\n        /* \"#utility.yul\":2007:2029   */\n      add\n        /* \"#utility.yul\":1975:2039   */\n      tag_119\n      jump\t// in\n    tag_138:\n        /* \"#utility.yul\":1965:2039   */\n      swap2\n      pop\n        /* \"#utility.yul\":1920:2049   */\n      pop\n        /* \"#utility.yul\":1618:2056   */\n      swap3\n      pop\n      swap3\n      swap1\n      pop\n      jump\t// out\n        /* \"#utility.yul\":2062:3686   */\n    tag_11:\n      0x00\n      dup1\n      0x00\n      dup1\n      0x00\n      dup1\n      0x00\n      dup1\n      0x00\n        /* \"#utility.yul\":2311:2314   */\n      0x0120\n        /* \"#utility.yul\":2299:2308   */\n      dup11\n        /* \"#utility.yul\":2290:2297   */\n      dup13\n        /* \"#utility.yul\":2286:2309   */\n      sub\n        /* \"#utility.yul\":2282:2315   */\n      slt\n        /* \"#utility.yul\":2279:2281   */\n      iszero\n      tag_140\n      jumpi\n        /* \"#utility.yul\":2328:2329   */\n      0x00\n        /* \"#utility.yul\":2325:2326   */\n      dup1\n        /* \"#utility.yul\":2318:2330   */\n      revert\n        /* \"#utility.yul\":2279:2281   */\n    tag_140:\n        /* \"#utility.yul\":2399:2400   */\n      0x00\n        /* \"#utility.yul\":2388:2397   */\n      dup11\n        /* \"#utility.yul\":2384:2401   */\n      add\n        /* \"#utility.yul\":2371:2402   */\n      calldataload\n        /* \"#utility.yul\":2429:2447   */\n      0xffffffffffffffff\n        /* \"#utility.yul\":2421:2427   */\n      dup2\n        /* \"#utility.yul\":2418:2448   */\n      gt\n        /* \"#utility.yul\":2415:2417   */\n      iszero\n      tag_141\n      jumpi\n        /* \"#utility.yul\":2461:2462   */\n      0x00\n        /* \"#utility.yul\":2458:2459   */\n      dup1\n        /* \"#utility.yul\":2451:2463   */\n      revert\n        /* \"#utility.yul\":2415:2417   */\n    tag_141:\n        /* \"#utility.yul\":2489:2552   */\n      tag_142\n        /* \"#utility.yul\":2544:2551   */\n      dup13\n        /* \"#utility.yul\":2535:2541   */\n      dup3\n        /* \"#utility.yul\":2524:2533   */\n      dup14\n        /* \"#utility.yul\":2520:2542   */\n      add\n        /* \"#utility.yul\":2489:2552   */\n      tag_123\n      jump\t// in\n    tag_142:\n        /* \"#utility.yul\":2479:2552   */\n      swap10\n      pop\n        /* \"#utility.yul\":2342:2562   */\n      pop\n        /* \"#utility.yul\":2629:2631   */\n      0x20\n        /* \"#utility.yul\":2618:2627   */\n      dup11\n        /* \"#utility.yul\":2614:2632   */\n      add\n        /* \"#utility.yul\":2601:2633   */\n      calldataload\n        /* \"#utility.yul\":2660:2678   */\n      0xffffffffffffffff\n        /* \"#utility.yul\":2652:2658   */\n      dup2\n        /* \"#utility.yul\":2649:2679   */\n      gt\n        /* \"#utility.yul\":2646:2648   */\n      iszero\n      tag_143\n      jumpi\n        /* \"#utility.yul\":2692:2693   */\n      0x00\n        /* \"#utility.yul\":2689:2690   */\n      dup1\n        /* \"#utility.yul\":2682:2694   */\n      revert\n        /* \"#utility.yul\":2646:2648   */\n    tag_143:\n        /* \"#utility.yul\":2720:2783   */\n      tag_144\n        /* \"#utility.yul\":2775:2782   */\n      dup13\n        /* \"#utility.yul\":2766:2772   */\n      dup3\n        /* \"#utility.yul\":2755:2764   */\n      dup14\n        /* \"#utility.yul\":2751:2773   */\n      add\n        /* \"#utility.yul\":2720:2783   */\n      tag_123\n      jump\t// in\n    tag_144:\n        /* \"#utility.yul\":2710:2783   */\n      swap9\n      pop\n        /* \"#utility.yul\":2572:2793   */\n      pop\n        /* \"#utility.yul\":2832:2834   */\n      0x40\n        /* \"#utility.yul\":2858:2911   */\n      tag_145\n        /* \"#utility.yul\":2903:2910   */\n      dup13\n        /* \"#utility.yul\":2894:2900   */\n      dup3\n        /* \"#utility.yul\":2883:2892   */\n      dup14\n        /* \"#utility.yul\":2879:2901   */\n      add\n        /* \"#utility.yul\":2858:2911   */\n      tag_127\n      jump\t// in\n    tag_145:\n        /* \"#utility.yul\":2848:2911   */\n      swap8\n      pop\n        /* \"#utility.yul\":2803:2921   */\n      pop\n        /* \"#utility.yul\":2960:2962   */\n      0x60\n        /* \"#utility.yul\":2986:3039   */\n      tag_146\n        /* \"#utility.yul\":3031:3038   */\n      dup13\n        /* \"#utility.yul\":3022:3028   */\n      dup3\n        /* \"#utility.yul\":3011:3020   */\n      dup14\n        /* \"#utility.yul\":3007:3029   */\n      add\n        /* \"#utility.yul\":2986:3039   */\n      tag_127\n      jump\t// in\n    tag_146:\n        /* \"#utility.yul\":2976:3039   */\n      swap7\n      pop\n        /* \"#utility.yul\":2931:3049   */\n      pop\n        /* \"#utility.yul\":3088:3091   */\n      0x80\n        /* \"#utility.yul\":3115:3165   */\n      tag_147\n        /* \"#utility.yul\":3157:3164   */\n      dup13\n        /* \"#utility.yul\":3148:3154   */\n      dup3\n        /* \"#utility.yul\":3137:3146   */\n      dup14\n        /* \"#utility.yul\":3133:3155   */\n      add\n        /* \"#utility.yul\":3115:3165   */\n      tag_115\n      jump\t// in\n    tag_147:\n        /* \"#utility.yul\":3105:3165   */\n      swap6\n      pop\n        /* \"#utility.yul\":3059:3175   */\n      pop\n        /* \"#utility.yul\":3214:3217   */\n      0xa0\n        /* \"#utility.yul\":3241:3291   */\n      tag_148\n        /* \"#utility.yul\":3283:3290   */\n      dup13\n        /* \"#utility.yul\":3274:3280   */\n      dup3\n        /* \"#utility.yul\":3263:3272   */\n      dup14\n        /* \"#utility.yul\":3259:3281   */\n      add\n        /* \"#utility.yul\":3241:3291   */\n      tag_115\n      jump\t// in\n    tag_148:\n        /* \"#utility.yul\":3231:3291   */\n      swap5\n      pop\n        /* \"#utility.yul\":3185:3301   */\n      pop\n        /* \"#utility.yul\":3340:3343   */\n      0xc0\n        /* \"#utility.yul\":3367:3417   */\n      tag_149\n        /* \"#utility.yul\":3409:3416   */\n      dup13\n        /* \"#utility.yul\":3400:3406   */\n      dup3\n        /* \"#utility.yul\":3389:3398   */\n      dup14\n        /* \"#utility.yul\":3385:3407   */\n      add\n        /* \"#utility.yul\":3367:3417   */\n      tag_115\n      jump\t// in\n    tag_149:\n        /* \"#utility.yul\":3357:3417   */\n      swap4\n      pop\n        /* \"#utility.yul\":3311:3427   */\n      pop\n        /* \"#utility.yul\":3466:3469   */\n      0xe0\n        /* \"#utility.yul\":3493:3543   */\n      tag_150\n        /* \"#utility.yul\":3535:3542   */\n      dup13\n        /* \"#utility.yul\":3526:3532   */\n      dup3\n        /* \"#utility.yul\":3515:3524   */\n      dup14\n        /* \"#utility.yul\":3511:3533   */\n      add\n        /* \"#utility.yul\":3493:3543   */\n      tag_115\n      jump\t// in\n    tag_150:\n        /* \"#utility.yul\":3483:3543   */\n      swap3\n      pop\n        /* \"#utility.yul\":3437:3553   */\n      pop\n        /* \"#utility.yul\":3592:3595   */\n      0x0100\n        /* \"#utility.yul\":3619:3669   */\n      tag_151\n        /* \"#utility.yul\":3661:3668   */\n      dup13\n        /* \"#utility.yul\":3652:3658   */\n      dup3\n        /* \"#utility.yul\":3641:3650   */\n      dup14\n        /* \"#utility.yul\":3637:3659   */\n      add\n        /* \"#utility.yul\":3619:3669   */\n      tag_115\n      jump\t// in\n    tag_151:\n        /* \"#utility.yul\":3609:3669   */\n      swap2\n      pop\n        /* \"#utility.yul\":3563:3679   */\n      pop\n        /* \"#utility.yul\":2269:3686   */\n      swap3\n      swap6\n      swap9\n      pop\n      swap3\n      swap6\n      swap9\n      pop\n      swap3\n      swap6\n      swap9\n      jump\t// out\n        /* \"#utility.yul\":3692:3834   */\n    tag_152:\n        /* \"#utility.yul\":3795:3827   */\n      tag_154\n        /* \"#utility.yul\":3821:3826   */\n      dup2\n        /* \"#utility.yul\":3795:3827   */\n      tag_155\n      jump\t// in\n    tag_154:\n        /* \"#utility.yul\":3790:3793   */\n      dup3\n        /* \"#utility.yul\":3783:3828   */\n      mstore\n        /* \"#utility.yul\":3773:3834   */\n      pop\n      pop\n      jump\t// out\n        /* \"#utility.yul\":3840:3958   */\n    tag_156:\n        /* \"#utility.yul\":3927:3951   */\n      tag_158\n        /* \"#utility.yul\":3945:3950   */\n      dup2\n        /* \"#utility.yul\":3927:3951   */\n      tag_159\n      jump\t// in\n    tag_158:\n        /* \"#utility.yul\":3922:3925   */\n      dup3\n        /* \"#utility.yul\":3915:3952   */\n      mstore\n        /* \"#utility.yul\":3905:3958   */\n      pop\n      pop\n      jump\t// out\n        /* \"#utility.yul\":3964:4073   */\n    tag_160:\n        /* \"#utility.yul\":4045:4066   */\n      tag_162\n        /* \"#utility.yul\":4060:4065   */\n      dup2\n        /* \"#utility.yul\":4045:4066   */\n      tag_163\n      jump\t// in\n    tag_162:\n        /* \"#utility.yul\":4040:4043   */\n      dup3\n        /* \"#utility.yul\":4033:4067   */\n      mstore\n        /* \"#utility.yul\":4023:4073   */\n      pop\n      pop\n      jump\t// out\n        /* \"#utility.yul\":4079:4228   */\n    tag_164:\n        /* \"#utility.yul\":4175:4221   */\n      tag_166\n        /* \"#utility.yul\":4215:4220   */\n      dup2\n        /* \"#utility.yul\":4175:4221   */\n      tag_167\n      jump\t// in\n    tag_166:\n        /* \"#utility.yul\":4170:4173   */\n      dup3\n        /* \"#utility.yul\":4163:4222   */\n      mstore\n        /* \"#utility.yul\":4153:4228   */\n      pop\n      pop\n      jump\t// out\n        /* \"#utility.yul\":4234:4598   */\n    tag_168:\n      0x00\n        /* \"#utility.yul\":4350:4389   */\n      tag_170\n        /* \"#utility.yul\":4383:4388   */\n      dup3\n        /* \"#utility.yul\":4350:4389   */\n      tag_171\n      jump\t// in\n    tag_170:\n        /* \"#utility.yul\":4405:4476   */\n      tag_172\n        /* \"#utility.yul\":4469:4475   */\n      dup2\n        /* \"#utility.yul\":4464:4467   */\n      dup6\n        /* \"#utility.yul\":4405:4476   */\n      tag_173\n      jump\t// in\n    tag_172:\n        /* \"#utility.yul\":4398:4476   */\n      swap4\n      pop\n        /* \"#utility.yul\":4485:4537   */\n      tag_174\n        /* \"#utility.yul\":4530:4536   */\n      dup2\n        /* \"#utility.yul\":4525:4528   */\n      dup6\n        /* \"#utility.yul\":4518:4522   */\n      0x20\n        /* \"#utility.yul\":4511:4516   */\n      dup7\n        /* \"#utility.yul\":4507:4523   */\n      add\n        /* \"#utility.yul\":4485:4537   */\n      tag_175\n      jump\t// in\n    tag_174:\n        /* \"#utility.yul\":4562:4591   */\n      tag_176\n        /* \"#utility.yul\":4584:4590   */\n      dup2\n        /* \"#utility.yul\":4562:4591   */\n      tag_177\n      jump\t// in\n    tag_176:\n        /* \"#utility.yul\":4557:4560   */\n      dup5\n        /* \"#utility.yul\":4553:4592   */\n      add\n        /* \"#utility.yul\":4546:4592   */\n      swap2\n      pop\n        /* \"#utility.yul\":4326:4598   */\n      pop\n      swap3\n      swap2\n      pop\n      pop\n      jump\t// out\n        /* \"#utility.yul\":4604:4976   */\n    tag_178:\n      0x00\n        /* \"#utility.yul\":4767:4834   */\n      tag_180\n        /* \"#utility.yul\":4831:4833   */\n      0x28\n        /* \"#utility.yul\":4826:4829   */\n      dup4\n        /* \"#utility.yul\":4767:4834   */\n      tag_173\n      jump\t// in\n    tag_180:\n        /* \"#utility.yul\":4760:4834   */\n      swap2\n      pop\n        /* \"#utility.yul\":4864:4898   */\n      0x596f7520616c7265616479206861766520616e20616374697665207269646520\n        /* \"#utility.yul\":4860:4861   */\n      0x00\n        /* \"#utility.yul\":4855:4858   */\n      dup4\n        /* \"#utility.yul\":4851:4862   */\n      add\n        /* \"#utility.yul\":4844:4899   */\n      mstore\n        /* \"#utility.yul\":4930:4940   */\n      0x726571756573742e000000000000000000000000000000000000000000000000\n        /* \"#utility.yul\":4925:4927   */\n      0x20\n        /* \"#utility.yul\":4920:4923   */\n      dup4\n        /* \"#utility.yul\":4916:4928   */\n      add\n        /* \"#utility.yul\":4909:4941   */\n      mstore\n        /* \"#utility.yul\":4967:4969   */\n      0x40\n        /* \"#utility.yul\":4962:4965   */\n      dup3\n        /* \"#utility.yul\":4958:4970   */\n      add\n        /* \"#utility.yul\":4951:4970   */\n      swap1\n      pop\n        /* \"#utility.yul\":4750:4976   */\n      swap2\n      swap1\n      pop\n      jump\t// out\n        /* \"#utility.yul\":4982:5300   */\n    tag_181:\n      0x00\n        /* \"#utility.yul\":5145:5212   */\n      tag_183\n        /* \"#utility.yul\":5209:5211   */\n      0x14\n        /* \"#utility.yul\":5204:5207   */\n      dup4\n        /* \"#utility.yul\":5145:5212   */\n      tag_173\n      jump\t// in\n    tag_183:\n        /* \"#utility.yul\":5138:5212   */\n      swap2\n      pop\n        /* \"#utility.yul\":5242:5264   */\n      0x5573657220646f6573206e6f742065786973742e000000000000000000000000\n        /* \"#utility.yul\":5238:5239   */\n      0x00\n        /* \"#utility.yul\":5233:5236   */\n      dup4\n        /* \"#utility.yul\":5229:5240   */\n      add\n        /* \"#utility.yul\":5222:5265   */\n      mstore\n        /* \"#utility.yul\":5291:5293   */\n      0x20\n        /* \"#utility.yul\":5286:5289   */\n      dup3\n        /* \"#utility.yul\":5282:5294   */\n      add\n        /* \"#utility.yul\":5275:5294   */\n      swap1\n      pop\n        /* \"#utility.yul\":5128:5300   */\n      swap2\n      swap1\n      pop\n      jump\t// out\n        /* \"#utility.yul\":5306:5624   */\n    tag_184:\n      0x00\n        /* \"#utility.yul\":5469:5536   */\n      tag_186\n        /* \"#utility.yul\":5533:5535   */\n      0x14\n        /* \"#utility.yul\":5528:5531   */\n      dup4\n        /* \"#utility.yul\":5469:5536   */\n      tag_173\n      jump\t// in\n    tag_186:\n        /* \"#utility.yul\":5462:5536   */\n      swap2\n      pop\n        /* \"#utility.yul\":5566:5588   */\n      0x5573657220616c7265616479206578697374732e000000000000000000000000\n        /* \"#utility.yul\":5562:5563   */\n      0x00\n        /* \"#utility.yul\":5557:5560   */\n      dup4\n        /* \"#utility.yul\":5553:5564   */\n      add\n        /* \"#utility.yul\":5546:5589   */\n      mstore\n        /* \"#utility.yul\":5615:5617   */\n      0x20\n        /* \"#utility.yul\":5610:5613   */\n      dup3\n        /* \"#utility.yul\":5606:5618   */\n      add\n        /* \"#utility.yul\":5599:5618   */\n      swap1\n      pop\n        /* \"#utility.yul\":5452:5624   */\n      swap2\n      swap1\n      pop\n      jump\t// out\n        /* \"#utility.yul\":5630:5956   */\n    tag_187:\n      0x00\n        /* \"#utility.yul\":5793:5860   */\n      tag_189\n        /* \"#utility.yul\":5857:5859   */\n      0x1c\n        /* \"#utility.yul\":5852:5855   */\n      dup4\n        /* \"#utility.yul\":5793:5860   */\n      tag_173\n      jump\t// in\n    tag_189:\n        /* \"#utility.yul\":5786:5860   */\n      swap2\n      pop\n        /* \"#utility.yul\":5890:5920   */\n      0x596f75206d757374207265676973746572206173206120757365722e00000000\n        /* \"#utility.yul\":5886:5887   */\n      0x00\n        /* \"#utility.yul\":5881:5884   */\n      dup4\n        /* \"#utility.yul\":5877:5888   */\n      add\n        /* \"#utility.yul\":5870:5921   */\n      mstore\n        /* \"#utility.yul\":5947:5949   */\n      0x20\n        /* \"#utility.yul\":5942:5945   */\n      dup3\n        /* \"#utility.yul\":5938:5950   */\n      add\n        /* \"#utility.yul\":5931:5950   */\n      swap1\n      pop\n        /* \"#utility.yul\":5776:5956   */\n      swap2\n      swap1\n      pop\n      jump\t// out\n        /* \"#utility.yul\":5962:6080   */\n    tag_190:\n        /* \"#utility.yul\":6049:6073   */\n      tag_192\n        /* \"#utility.yul\":6067:6072   */\n      dup2\n        /* \"#utility.yul\":6049:6073   */\n      tag_193\n      jump\t// in\n    tag_192:\n        /* \"#utility.yul\":6044:6047   */\n      dup3\n        /* \"#utility.yul\":6037:6074   */\n      mstore\n        /* \"#utility.yul\":6027:6080   */\n      pop\n      pop\n      jump\t// out\n        /* \"#utility.yul\":6086:7572   */\n    tag_29:\n      0x00\n        /* \"#utility.yul\":6524:6527   */\n      0x0160\n        /* \"#utility.yul\":6513:6522   */\n      dup3\n        /* \"#utility.yul\":6509:6528   */\n      add\n        /* \"#utility.yul\":6501:6528   */\n      swap1\n      pop\n        /* \"#utility.yul\":6538:6609   */\n      tag_195\n        /* \"#utility.yul\":6606:6607   */\n      0x00\n        /* \"#utility.yul\":6595:6604   */\n      dup4\n        /* \"#utility.yul\":6591:6608   */\n      add\n        /* \"#utility.yul\":6582:6588   */\n      dup15\n        /* \"#utility.yul\":6538:6609   */\n      tag_156\n      jump\t// in\n    tag_195:\n        /* \"#utility.yul\":6619:6707   */\n      tag_196\n        /* \"#utility.yul\":6703:6705   */\n      0x20\n        /* \"#utility.yul\":6692:6701   */\n      dup4\n        /* \"#utility.yul\":6688:6706   */\n      add\n        /* \"#utility.yul\":6679:6685   */\n      dup14\n        /* \"#utility.yul\":6619:6707   */\n      tag_152\n      jump\t// in\n    tag_196:\n        /* \"#utility.yul\":6754:6763   */\n      dup2\n        /* \"#utility.yul\":6748:6752   */\n      dup2\n        /* \"#utility.yul\":6744:6764   */\n      sub\n        /* \"#utility.yul\":6739:6741   */\n      0x40\n        /* \"#utility.yul\":6728:6737   */\n      dup4\n        /* \"#utility.yul\":6724:6742   */\n      add\n        /* \"#utility.yul\":6717:6765   */\n      mstore\n        /* \"#utility.yul\":6782:6860   */\n      tag_197\n        /* \"#utility.yul\":6855:6859   */\n      dup2\n        /* \"#utility.yul\":6846:6852   */\n      dup13\n        /* \"#utility.yul\":6782:6860   */\n      tag_168\n      jump\t// in\n    tag_197:\n        /* \"#utility.yul\":6774:6860   */\n      swap1\n      pop\n        /* \"#utility.yul\":6907:6916   */\n      dup2\n        /* \"#utility.yul\":6901:6905   */\n      dup2\n        /* \"#utility.yul\":6897:6917   */\n      sub\n        /* \"#utility.yul\":6892:6894   */\n      0x60\n        /* \"#utility.yul\":6881:6890   */\n      dup4\n        /* \"#utility.yul\":6877:6895   */\n      add\n        /* \"#utility.yul\":6870:6918   */\n      mstore\n        /* \"#utility.yul\":6935:7013   */\n      tag_198\n        /* \"#utility.yul\":7008:7012   */\n      dup2\n        /* \"#utility.yul\":6999:7005   */\n      dup12\n        /* \"#utility.yul\":6935:7013   */\n      tag_168\n      jump\t// in\n    tag_198:\n        /* \"#utility.yul\":6927:7013   */\n      swap1\n      pop\n        /* \"#utility.yul\":7023:7096   */\n      tag_199\n        /* \"#utility.yul\":7091:7094   */\n      0x80\n        /* \"#utility.yul\":7080:7089   */\n      dup4\n        /* \"#utility.yul\":7076:7095   */\n      add\n        /* \"#utility.yul\":7067:7073   */\n      dup11\n        /* \"#utility.yul\":7023:7096   */\n      tag_190\n      jump\t// in\n    tag_199:\n        /* \"#utility.yul\":7106:7179   */\n      tag_200\n        /* \"#utility.yul\":7174:7177   */\n      0xa0\n        /* \"#utility.yul\":7163:7172   */\n      dup4\n        /* \"#utility.yul\":7159:7178   */\n      add\n        /* \"#utility.yul\":7150:7156   */\n      dup10\n        /* \"#utility.yul\":7106:7179   */\n      tag_190\n      jump\t// in\n    tag_200:\n        /* \"#utility.yul\":7189:7256   */\n      tag_201\n        /* \"#utility.yul\":7251:7254   */\n      0xc0\n        /* \"#utility.yul\":7240:7249   */\n      dup4\n        /* \"#utility.yul\":7236:7255   */\n      add\n        /* \"#utility.yul\":7227:7233   */\n      dup9\n        /* \"#utility.yul\":7189:7256   */\n      tag_160\n      jump\t// in\n    tag_201:\n        /* \"#utility.yul\":7266:7333   */\n      tag_202\n        /* \"#utility.yul\":7328:7331   */\n      0xe0\n        /* \"#utility.yul\":7317:7326   */\n      dup4\n        /* \"#utility.yul\":7313:7332   */\n      add\n        /* \"#utility.yul\":7304:7310   */\n      dup8\n        /* \"#utility.yul\":7266:7333   */\n      tag_160\n      jump\t// in\n    tag_202:\n        /* \"#utility.yul\":7343:7410   */\n      tag_203\n        /* \"#utility.yul\":7405:7408   */\n      0x0100\n        /* \"#utility.yul\":7394:7403   */\n      dup4\n        /* \"#utility.yul\":7390:7409   */\n      add\n        /* \"#utility.yul\":7381:7387   */\n      dup7\n        /* \"#utility.yul\":7343:7410   */\n      tag_160\n      jump\t// in\n    tag_203:\n        /* \"#utility.yul\":7420:7487   */\n      tag_204\n        /* \"#utility.yul\":7482:7485   */\n      0x0120\n        /* \"#utility.yul\":7471:7480   */\n      dup4\n        /* \"#utility.yul\":7467:7486   */\n      add\n        /* \"#utility.yul\":7458:7464   */\n      dup6\n        /* \"#utility.yul\":7420:7487   */\n      tag_160\n      jump\t// in\n    tag_204:\n        /* \"#utility.yul\":7497:7565   */\n      tag_205\n        /* \"#utility.yul\":7560:7563   */\n      0x0140\n        /* \"#utility.yul\":7549:7558   */\n      dup4\n        /* \"#utility.yul\":7545:7564   */\n      add\n        /* \"#utility.yul\":7535:7542   */\n      dup5\n        /* \"#utility.yul\":7497:7565   */\n      tag_160\n      jump\t// in\n    tag_205:\n        /* \"#utility.yul\":6491:7572   */\n      swap13\n      swap12\n      pop\n      pop\n      pop\n      pop\n      pop\n      pop\n      pop\n      pop\n      pop\n      pop\n      pop\n      pop\n      jump\t// out\n        /* \"#utility.yul\":7578:8424   */\n    tag_34:\n      0x00\n        /* \"#utility.yul\":7861:7864   */\n      0xa0\n        /* \"#utility.yul\":7850:7859   */\n      dup3\n        /* \"#utility.yul\":7846:7865   */\n      add\n        /* \"#utility.yul\":7838:7865   */\n      swap1\n      pop\n        /* \"#utility.yul\":7875:7946   */\n      tag_207\n        /* \"#utility.yul\":7943:7944   */\n      0x00\n        /* \"#utility.yul\":7932:7941   */\n      dup4\n        /* \"#utility.yul\":7928:7945   */\n      add\n        /* \"#utility.yul\":7919:7925   */\n      dup9\n        /* \"#utility.yul\":7875:7946   */\n      tag_156\n      jump\t// in\n    tag_207:\n        /* \"#utility.yul\":7993:8002   */\n      dup2\n        /* \"#utility.yul\":7987:7991   */\n      dup2\n        /* \"#utility.yul\":7983:8003   */\n      sub\n        /* \"#utility.yul\":7978:7980   */\n      0x20\n        /* \"#utility.yul\":7967:7976   */\n      dup4\n        /* \"#utility.yul\":7963:7981   */\n      add\n        /* \"#utility.yul\":7956:8004   */\n      mstore\n        /* \"#utility.yul\":8021:8099   */\n      tag_208\n        /* \"#utility.yul\":8094:8098   */\n      dup2\n        /* \"#utility.yul\":8085:8091   */\n      dup8\n        /* \"#utility.yul\":8021:8099   */\n      tag_168\n      jump\t// in\n    tag_208:\n        /* \"#utility.yul\":8013:8099   */\n      swap1\n      pop\n        /* \"#utility.yul\":8146:8155   */\n      dup2\n        /* \"#utility.yul\":8140:8144   */\n      dup2\n        /* \"#utility.yul\":8136:8156   */\n      sub\n        /* \"#utility.yul\":8131:8133   */\n      0x40\n        /* \"#utility.yul\":8120:8129   */\n      dup4\n        /* \"#utility.yul\":8116:8134   */\n      add\n        /* \"#utility.yul\":8109:8157   */\n      mstore\n        /* \"#utility.yul\":8174:8252   */\n      tag_209\n        /* \"#utility.yul\":8247:8251   */\n      dup2\n        /* \"#utility.yul\":8238:8244   */\n      dup7\n        /* \"#utility.yul\":8174:8252   */\n      tag_168\n      jump\t// in\n    tag_209:\n        /* \"#utility.yul\":8166:8252   */\n      swap1\n      pop\n        /* \"#utility.yul\":8262:8334   */\n      tag_210\n        /* \"#utility.yul\":8330:8332   */\n      0x60\n        /* \"#utility.yul\":8319:8328   */\n      dup4\n        /* \"#utility.yul\":8315:8333   */\n      add\n        /* \"#utility.yul\":8306:8312   */\n      dup6\n        /* \"#utility.yul\":8262:8334   */\n      tag_190\n      jump\t// in\n    tag_210:\n        /* \"#utility.yul\":8344:8417   */\n      tag_211\n        /* \"#utility.yul\":8412:8415   */\n      0x80\n        /* \"#utility.yul\":8401:8410   */\n      dup4\n        /* \"#utility.yul\":8397:8416   */\n      add\n        /* \"#utility.yul\":8388:8394   */\n      dup5\n        /* \"#utility.yul\":8344:8417   */\n      tag_190\n      jump\t// in\n    tag_211:\n        /* \"#utility.yul\":7828:8424   */\n      swap7\n      swap6\n      pop\n      pop\n      pop\n      pop\n      pop\n      pop\n      jump\t// out\n        /* \"#utility.yul\":8430:8670   */\n    tag_64:\n      0x00\n        /* \"#utility.yul\":8570:8572   */\n      0x20\n        /* \"#utility.yul\":8559:8568   */\n      dup3\n        /* \"#utility.yul\":8555:8573   */\n      add\n        /* \"#utility.yul\":8547:8573   */\n      swap1\n      pop\n        /* \"#utility.yul\":8583:8663   */\n      tag_213\n        /* \"#utility.yul\":8660:8661   */\n      0x00\n        /* \"#utility.yul\":8649:8658   */\n      dup4\n        /* \"#utility.yul\":8645:8662   */\n      add\n        /* \"#utility.yul\":8636:8642   */\n      dup5\n        /* \"#utility.yul\":8583:8663   */\n      tag_164\n      jump\t// in\n    tag_213:\n        /* \"#utility.yul\":8537:8670   */\n      swap3\n      swap2\n      pop\n      pop\n      jump\t// out\n        /* \"#utility.yul\":8676:9227   */\n    tag_24:\n      0x00\n        /* \"#utility.yul\":8892:8894   */\n      0x60\n        /* \"#utility.yul\":8881:8890   */\n      dup3\n        /* \"#utility.yul\":8877:8895   */\n      add\n        /* \"#utility.yul\":8869:8895   */\n      swap1\n      pop\n        /* \"#utility.yul\":8941:8950   */\n      dup2\n        /* \"#utility.yul\":8935:8939   */\n      dup2\n        /* \"#utility.yul\":8931:8951   */\n      sub\n        /* \"#utility.yul\":8927:8928   */\n      0x00\n        /* \"#utility.yul\":8916:8925   */\n      dup4\n        /* \"#utility.yul\":8912:8929   */\n      add\n        /* \"#utility.yul\":8905:8952   */\n      mstore\n        /* \"#utility.yul\":8969:9047   */\n      tag_215\n        /* \"#utility.yul\":9042:9046   */\n      dup2\n        /* \"#utility.yul\":9033:9039   */\n      dup7\n        /* \"#utility.yul\":8969:9047   */\n      tag_168\n      jump\t// in\n    tag_215:\n        /* \"#utility.yul\":8961:9047   */\n      swap1\n      pop\n        /* \"#utility.yul\":9057:9129   */\n      tag_216\n        /* \"#utility.yul\":9125:9127   */\n      0x20\n        /* \"#utility.yul\":9114:9123   */\n      dup4\n        /* \"#utility.yul\":9110:9128   */\n      add\n        /* \"#utility.yul\":9101:9107   */\n      dup6\n        /* \"#utility.yul\":9057:9129   */\n      tag_156\n      jump\t// in\n    tag_216:\n        /* \"#utility.yul\":9139:9220   */\n      tag_217\n        /* \"#utility.yul\":9216:9218   */\n      0x40\n        /* \"#utility.yul\":9205:9214   */\n      dup4\n        /* \"#utility.yul\":9201:9219   */\n      add\n        /* \"#utility.yul\":9192:9198   */\n      dup5\n        /* \"#utility.yul\":9139:9220   */\n      tag_164\n      jump\t// in\n    tag_217:\n        /* \"#utility.yul\":8859:9227   */\n      swap5\n      swap4\n      pop\n      pop\n      pop\n      pop\n      jump\t// out\n        /* \"#utility.yul\":9233:9674   */\n    tag_57:\n      0x00\n        /* \"#utility.yul\":9421:9423   */\n      0x40\n        /* \"#utility.yul\":9410:9419   */\n      dup3\n        /* \"#utility.yul\":9406:9424   */\n      add\n        /* \"#utility.yul\":9398:9424   */\n      swap1\n      pop\n        /* \"#utility.yul\":9470:9479   */\n      dup2\n        /* \"#utility.yul\":9464:9468   */\n      dup2\n        /* \"#utility.yul\":9460:9480   */\n      sub\n        /* \"#utility.yul\":9456:9457   */\n      0x00\n        /* \"#utility.yul\":9445:9454   */\n      dup4\n        /* \"#utility.yul\":9441:9458   */\n      add\n        /* \"#utility.yul\":9434:9481   */\n      mstore\n        /* \"#utility.yul\":9498:9576   */\n      tag_219\n        /* \"#utility.yul\":9571:9575   */\n      dup2\n        /* \"#utility.yul\":9562:9568   */\n      dup6\n        /* \"#utility.yul\":9498:9576   */\n      tag_168\n      jump\t// in\n    tag_219:\n        /* \"#utility.yul\":9490:9576   */\n      swap1\n      pop\n        /* \"#utility.yul\":9586:9667   */\n      tag_220\n        /* \"#utility.yul\":9663:9665   */\n      0x20\n        /* \"#utility.yul\":9652:9661   */\n      dup4\n        /* \"#utility.yul\":9648:9666   */\n      add\n        /* \"#utility.yul\":9639:9645   */\n      dup5\n        /* \"#utility.yul\":9586:9667   */\n      tag_164\n      jump\t// in\n    tag_220:\n        /* \"#utility.yul\":9388:9674   */\n      swap4\n      swap3\n      pop\n      pop\n      pop\n      jump\t// out\n        /* \"#utility.yul\":9680:10415   */\n    tag_47:\n      0x00\n        /* \"#utility.yul\":9935:9938   */\n      0x80\n        /* \"#utility.yul\":9924:9933   */\n      dup3\n        /* \"#utility.yul\":9920:9939   */\n      add\n        /* \"#utility.yul\":9912:9939   */\n      swap1\n      pop\n        /* \"#utility.yul\":9985:9994   */\n      dup2\n        /* \"#utility.yul\":9979:9983   */\n      dup2\n        /* \"#utility.yul\":9975:9995   */\n      sub\n        /* \"#utility.yul\":9971:9972   */\n      0x00\n        /* \"#utility.yul\":9960:9969   */\n      dup4\n        /* \"#utility.yul\":9956:9973   */\n      add\n        /* \"#utility.yul\":9949:9996   */\n      mstore\n        /* \"#utility.yul\":10013:10091   */\n      tag_222\n        /* \"#utility.yul\":10086:10090   */\n      dup2\n        /* \"#utility.yul\":10077:10083   */\n      dup8\n        /* \"#utility.yul\":10013:10091   */\n      tag_168\n      jump\t// in\n    tag_222:\n        /* \"#utility.yul\":10005:10091   */\n      swap1\n      pop\n        /* \"#utility.yul\":10138:10147   */\n      dup2\n        /* \"#utility.yul\":10132:10136   */\n      dup2\n        /* \"#utility.yul\":10128:10148   */\n      sub\n        /* \"#utility.yul\":10123:10125   */\n      0x20\n        /* \"#utility.yul\":10112:10121   */\n      dup4\n        /* \"#utility.yul\":10108:10126   */\n      add\n        /* \"#utility.yul\":10101:10149   */\n      mstore\n        /* \"#utility.yul\":10166:10244   */\n      tag_223\n        /* \"#utility.yul\":10239:10243   */\n      dup2\n        /* \"#utility.yul\":10230:10236   */\n      dup7\n        /* \"#utility.yul\":10166:10244   */\n      tag_168\n      jump\t// in\n    tag_223:\n        /* \"#utility.yul\":10158:10244   */\n      swap1\n      pop\n        /* \"#utility.yul\":10254:10326   */\n      tag_224\n        /* \"#utility.yul\":10322:10324   */\n      0x40\n        /* \"#utility.yul\":10311:10320   */\n      dup4\n        /* \"#utility.yul\":10307:10325   */\n      add\n        /* \"#utility.yul\":10298:10304   */\n      dup6\n        /* \"#utility.yul\":10254:10326   */\n      tag_190\n      jump\t// in\n    tag_224:\n        /* \"#utility.yul\":10336:10408   */\n      tag_225\n        /* \"#utility.yul\":10404:10406   */\n      0x60\n        /* \"#utility.yul\":10393:10402   */\n      dup4\n        /* \"#utility.yul\":10389:10407   */\n      add\n        /* \"#utility.yul\":10380:10386   */\n      dup5\n        /* \"#utility.yul\":10336:10408   */\n      tag_190\n      jump\t// in\n    tag_225:\n        /* \"#utility.yul\":9902:10415   */\n      swap6\n      swap5\n      pop\n      pop\n      pop\n      pop\n      pop\n      jump\t// out\n        /* \"#utility.yul\":10421:10840   */\n    tag_42:\n      0x00\n        /* \"#utility.yul\":10625:10627   */\n      0x20\n        /* \"#utility.yul\":10614:10623   */\n      dup3\n        /* \"#utility.yul\":10610:10628   */\n      add\n        /* \"#utility.yul\":10602:10628   */\n      swap1\n      pop\n        /* \"#utility.yul\":10674:10683   */\n      dup2\n        /* \"#utility.yul\":10668:10672   */\n      dup2\n        /* \"#utility.yul\":10664:10684   */\n      sub\n        /* \"#utility.yul\":10660:10661   */\n      0x00\n        /* \"#utility.yul\":10649:10658   */\n      dup4\n        /* \"#utility.yul\":10645:10662   */\n      add\n        /* \"#utility.yul\":10638:10685   */\n      mstore\n        /* \"#utility.yul\":10702:10833   */\n      tag_227\n        /* \"#utility.yul\":10828:10832   */\n      dup2\n        /* \"#utility.yul\":10702:10833   */\n      tag_178\n      jump\t// in\n    tag_227:\n        /* \"#utility.yul\":10694:10833   */\n      swap1\n      pop\n        /* \"#utility.yul\":10592:10840   */\n      swap2\n      swap1\n      pop\n      jump\t// out\n        /* \"#utility.yul\":10846:11265   */\n    tag_61:\n      0x00\n        /* \"#utility.yul\":11050:11052   */\n      0x20\n        /* \"#utility.yul\":11039:11048   */\n      dup3\n        /* \"#utility.yul\":11035:11053   */\n      add\n        /* \"#utility.yul\":11027:11053   */\n      swap1\n      pop\n        /* \"#utility.yul\":11099:11108   */\n      dup2\n        /* \"#utility.yul\":11093:11097   */\n      dup2\n        /* \"#utility.yul\":11089:11109   */\n      sub\n        /* \"#utility.yul\":11085:11086   */\n      0x00\n        /* \"#utility.yul\":11074:11083   */\n      dup4\n        /* \"#utility.yul\":11070:11087   */\n      add\n        /* \"#utility.yul\":11063:11110   */\n      mstore\n        /* \"#utility.yul\":11127:11258   */\n      tag_229\n        /* \"#utility.yul\":11253:11257   */\n      dup2\n        /* \"#utility.yul\":11127:11258   */\n      tag_181\n      jump\t// in\n    tag_229:\n        /* \"#utility.yul\":11119:11258   */\n      swap1\n      pop\n        /* \"#utility.yul\":11017:11265   */\n      swap2\n      swap1\n      pop\n      jump\t// out\n        /* \"#utility.yul\":11271:11690   */\n    tag_51:\n      0x00\n        /* \"#utility.yul\":11475:11477   */\n      0x20\n        /* \"#utility.yul\":11464:11473   */\n      dup3\n        /* \"#utility.yul\":11460:11478   */\n      add\n        /* \"#utility.yul\":11452:11478   */\n      swap1\n      pop\n        /* \"#utility.yul\":11524:11533   */\n      dup2\n        /* \"#utility.yul\":11518:11522   */\n      dup2\n        /* \"#utility.yul\":11514:11534   */\n      sub\n        /* \"#utility.yul\":11510:11511   */\n      0x00\n        /* \"#utility.yul\":11499:11508   */\n      dup4\n        /* \"#utility.yul\":11495:11512   */\n      add\n        /* \"#utility.yul\":11488:11535   */\n      mstore\n        /* \"#utility.yul\":11552:11683   */\n      tag_231\n        /* \"#utility.yul\":11678:11682   */\n      dup2\n        /* \"#utility.yul\":11552:11683   */\n      tag_184\n      jump\t// in\n    tag_231:\n        /* \"#utility.yul\":11544:11683   */\n      swap1\n      pop\n        /* \"#utility.yul\":11442:11690   */\n      swap2\n      swap1\n      pop\n      jump\t// out\n        /* \"#utility.yul\":11696:12115   */\n    tag_38:\n      0x00\n        /* \"#utility.yul\":11900:11902   */\n      0x20\n        /* \"#utility.yul\":11889:11898   */\n      dup3\n        /* \"#utility.yul\":11885:11903   */\n      add\n        /* \"#utility.yul\":11877:11903   */\n      swap1\n      pop\n        /* \"#utility.yul\":11949:11958   */\n      dup2\n        /* \"#utility.yul\":11943:11947   */\n      dup2\n        /* \"#utility.yul\":11939:11959   */\n      sub\n        /* \"#utility.yul\":11935:11936   */\n      0x00\n        /* \"#utility.yul\":11924:11933   */\n      dup4\n        /* \"#utility.yul\":11920:11937   */\n      add\n        /* \"#utility.yul\":11913:11960   */\n      mstore\n        /* \"#utility.yul\":11977:12108   */\n      tag_233\n        /* \"#utility.yul\":12103:12107   */\n      dup2\n        /* \"#utility.yul\":11977:12108   */\n      tag_187\n      jump\t// in\n    tag_233:\n        /* \"#utility.yul\":11969:12108   */\n      swap1\n      pop\n        /* \"#utility.yul\":11867:12115   */\n      swap2\n      swap1\n      pop\n      jump\t// out\n        /* \"#utility.yul\":12121:12404   */\n    tag_107:\n      0x00\n        /* \"#utility.yul\":12187:12189   */\n      0x40\n        /* \"#utility.yul\":12181:12190   */\n      mload\n        /* \"#utility.yul\":12171:12190   */\n      swap1\n      pop\n        /* \"#utility.yul\":12229:12233   */\n      dup2\n        /* \"#utility.yul\":12221:12227   */\n      dup2\n        /* \"#utility.yul\":12217:12234   */\n      add\n        /* \"#utility.yul\":12336:12342   */\n      dup2\n        /* \"#utility.yul\":12324:12334   */\n      dup2\n        /* \"#utility.yul\":12321:12343   */\n      lt\n        /* \"#utility.yul\":12300:12318   */\n      0xffffffffffffffff\n        /* \"#utility.yul\":12288:12298   */\n      dup3\n        /* \"#utility.yul\":12285:12319   */\n      gt\n        /* \"#utility.yul\":12282:12344   */\n      or\n        /* \"#utility.yul\":12279:12281   */\n      iszero\n      tag_235\n      jumpi\n        /* \"#utility.yul\":12347:12365   */\n      tag_236\n      tag_237\n      jump\t// in\n    tag_236:\n        /* \"#utility.yul\":12279:12281   */\n    tag_235:\n        /* \"#utility.yul\":12387:12397   */\n      dup1\n        /* \"#utility.yul\":12383:12385   */\n      0x40\n        /* \"#utility.yul\":12376:12398   */\n      mstore\n        /* \"#utility.yul\":12161:12404   */\n      pop\n      swap2\n      swap1\n      pop\n      jump\t// out\n        /* \"#utility.yul\":12410:12742   */\n    tag_106:\n      0x00\n        /* \"#utility.yul\":12562:12580   */\n      0xffffffffffffffff\n        /* \"#utility.yul\":12554:12560   */\n      dup3\n        /* \"#utility.yul\":12551:12581   */\n      gt\n        /* \"#utility.yul\":12548:12550   */\n      iszero\n      tag_239\n      jumpi\n        /* \"#utility.yul\":12584:12602   */\n      tag_240\n      tag_237\n      jump\t// in\n    tag_240:\n        /* \"#utility.yul\":12548:12550   */\n    tag_239:\n        /* \"#utility.yul\":12669:12673   */\n      0x1f\n        /* \"#utility.yul\":12665:12674   */\n      not\n        /* \"#utility.yul\":12658:12662   */\n      0x1f\n        /* \"#utility.yul\":12650:12656   */\n      dup4\n        /* \"#utility.yul\":12646:12663   */\n      add\n        /* \"#utility.yul\":12642:12675   */\n      and\n        /* \"#utility.yul\":12634:12675   */\n      swap1\n      pop\n        /* \"#utility.yul\":12730:12734   */\n      0x20\n        /* \"#utility.yul\":12724:12728   */\n      dup2\n        /* \"#utility.yul\":12720:12735   */\n      add\n        /* \"#utility.yul\":12712:12735   */\n      swap1\n      pop\n        /* \"#utility.yul\":12477:12742   */\n      swap2\n      swap1\n      pop\n      jump\t// out\n        /* \"#utility.yul\":12748:12847   */\n    tag_171:\n      0x00\n        /* \"#utility.yul\":12834:12839   */\n      dup2\n        /* \"#utility.yul\":12828:12840   */\n      mload\n        /* \"#utility.yul\":12818:12840   */\n      swap1\n      pop\n        /* \"#utility.yul\":12807:12847   */\n      swap2\n      swap1\n      pop\n      jump\t// out\n        /* \"#utility.yul\":12853:13022   */\n    tag_173:\n      0x00\n        /* \"#utility.yul\":12971:12977   */\n      dup3\n        /* \"#utility.yul\":12966:12969   */\n      dup3\n        /* \"#utility.yul\":12959:12978   */\n      mstore\n        /* \"#utility.yul\":13011:13015   */\n      0x20\n        /* \"#utility.yul\":13006:13009   */\n      dup3\n        /* \"#utility.yul\":13002:13016   */\n      add\n        /* \"#utility.yul\":12987:13016   */\n      swap1\n      pop\n        /* \"#utility.yul\":12949:13022   */\n      swap3\n      swap2\n      pop\n      pop\n      jump\t// out\n        /* \"#utility.yul\":13028:13124   */\n    tag_159:\n      0x00\n        /* \"#utility.yul\":13094:13118   */\n      tag_244\n        /* \"#utility.yul\":13112:13117   */\n      dup3\n        /* \"#utility.yul\":13094:13118   */\n      tag_245\n      jump\t// in\n    tag_244:\n        /* \"#utility.yul\":13083:13118   */\n      swap1\n      pop\n        /* \"#utility.yul\":13073:13124   */\n      swap2\n      swap1\n      pop\n      jump\t// out\n        /* \"#utility.yul\":13130:13234   */\n    tag_155:\n      0x00\n        /* \"#utility.yul\":13204:13228   */\n      tag_247\n        /* \"#utility.yul\":13222:13227   */\n      dup3\n        /* \"#utility.yul\":13204:13228   */\n      tag_245\n      jump\t// in\n    tag_247:\n        /* \"#utility.yul\":13193:13228   */\n      swap1\n      pop\n        /* \"#utility.yul\":13183:13234   */\n      swap2\n      swap1\n      pop\n      jump\t// out\n        /* \"#utility.yul\":13240:13330   */\n    tag_163:\n      0x00\n        /* \"#utility.yul\":13317:13322   */\n      dup2\n        /* \"#utility.yul\":13310:13323   */\n      iszero\n        /* \"#utility.yul\":13303:13324   */\n      iszero\n        /* \"#utility.yul\":13292:13324   */\n      swap1\n      pop\n        /* \"#utility.yul\":13282:13330   */\n      swap2\n      swap1\n      pop\n      jump\t// out\n        /* \"#utility.yul\":13336:13469   */\n    tag_249:\n      0x00\n        /* \"#utility.yul\":13413:13418   */\n      dup2\n        /* \"#utility.yul\":13402:13418   */\n      swap1\n      pop\n        /* \"#utility.yul\":13419:13463   */\n      tag_251\n        /* \"#utility.yul\":13457:13462   */\n      dup3\n        /* \"#utility.yul\":13419:13463   */\n      tag_252\n      jump\t// in\n    tag_251:\n        /* \"#utility.yul\":13392:13469   */\n      swap2\n      swap1\n      pop\n      jump\t// out\n        /* \"#utility.yul\":13475:13601   */\n    tag_245:\n      0x00\n        /* \"#utility.yul\":13552:13594   */\n      0xffffffffffffffffffffffffffffffffffffffff\n        /* \"#utility.yul\":13545:13550   */\n      dup3\n        /* \"#utility.yul\":13541:13595   */\n      and\n        /* \"#utility.yul\":13530:13595   */\n      swap1\n      pop\n        /* \"#utility.yul\":13520:13601   */\n      swap2\n      swap1\n      pop\n      jump\t// out\n        /* \"#utility.yul\":13607:13684   */\n    tag_193:\n      0x00\n        /* \"#utility.yul\":13673:13678   */\n      dup2\n        /* \"#utility.yul\":13662:13678   */\n      swap1\n      pop\n        /* \"#utility.yul\":13652:13684   */\n      swap2\n      swap1\n      pop\n      jump\t// out\n        /* \"#utility.yul\":13690:13823   */\n    tag_167:\n      0x00\n        /* \"#utility.yul\":13782:13817   */\n      tag_256\n        /* \"#utility.yul\":13811:13816   */\n      dup3\n        /* \"#utility.yul\":13782:13817   */\n      tag_249\n      jump\t// in\n    tag_256:\n        /* \"#utility.yul\":13769:13817   */\n      swap1\n      pop\n        /* \"#utility.yul\":13759:13823   */\n      swap2\n      swap1\n      pop\n      jump\t// out\n        /* \"#utility.yul\":13829:13983   */\n    tag_110:\n        /* \"#utility.yul\":13913:13919   */\n      dup3\n        /* \"#utility.yul\":13908:13911   */\n      dup2\n        /* \"#utility.yul\":13903:13906   */\n      dup4\n        /* \"#utility.yul\":13890:13920   */\n      calldatacopy\n        /* \"#utility.yul\":13975:13976   */\n      0x00\n        /* \"#utility.yul\":13966:13972   */\n      dup4\n        /* \"#utility.yul\":13961:13964   */\n      dup4\n        /* \"#utility.yul\":13957:13973   */\n      add\n        /* \"#utility.yul\":13950:13977   */\n      mstore\n        /* \"#utility.yul\":13880:13983   */\n      pop\n      pop\n      pop\n      jump\t// out\n        /* \"#utility.yul\":13989:14296   */\n    tag_175:\n        /* \"#utility.yul\":14057:14058   */\n      0x00\n        /* \"#utility.yul\":14067:14180   */\n    tag_259:\n        /* \"#utility.yul\":14081:14087   */\n      dup4\n        /* \"#utility.yul\":14078:14079   */\n      dup2\n        /* \"#utility.yul\":14075:14088   */\n      lt\n        /* \"#utility.yul\":14067:14180   */\n      iszero\n      tag_261\n      jumpi\n        /* \"#utility.yul\":14166:14167   */\n      dup1\n        /* \"#utility.yul\":14161:14164   */\n      dup3\n        /* \"#utility.yul\":14157:14168   */\n      add\n        /* \"#utility.yul\":14151:14169   */\n      mload\n        /* \"#utility.yul\":14147:14148   */\n      dup2\n        /* \"#utility.yul\":14142:14145   */\n      dup5\n        /* \"#utility.yul\":14138:14149   */\n      add\n        /* \"#utility.yul\":14131:14170   */\n      mstore\n        /* \"#utility.yul\":14103:14105   */\n      0x20\n        /* \"#utility.yul\":14100:14101   */\n      dup2\n        /* \"#utility.yul\":14096:14106   */\n      add\n        /* \"#utility.yul\":14091:14106   */\n      swap1\n      pop\n        /* \"#utility.yul\":14067:14180   */\n      jump(tag_259)\n    tag_261:\n        /* \"#utility.yul\":14198:14204   */\n      dup4\n        /* \"#utility.yul\":14195:14196   */\n      dup2\n        /* \"#utility.yul\":14192:14205   */\n      gt\n        /* \"#utility.yul\":14189:14191   */\n      iszero\n      tag_262\n      jumpi\n        /* \"#utility.yul\":14278:14279   */\n      0x00\n        /* \"#utility.yul\":14269:14275   */\n      dup5\n        /* \"#utility.yul\":14264:14267   */\n      dup5\n        /* \"#utility.yul\":14260:14276   */\n      add\n        /* \"#utility.yul\":14253:14280   */\n      mstore\n        /* \"#utility.yul\":14189:14191   */\n    tag_262:\n        /* \"#utility.yul\":14038:14296   */\n      pop\n      pop\n      pop\n      pop\n      jump\t// out\n        /* \"#utility.yul\":14302:14622   */\n    tag_66:\n      0x00\n        /* \"#utility.yul\":14383:14384   */\n      0x02\n        /* \"#utility.yul\":14377:14381   */\n      dup3\n        /* \"#utility.yul\":14373:14385   */\n      div\n        /* \"#utility.yul\":14363:14385   */\n      swap1\n      pop\n        /* \"#utility.yul\":14430:14431   */\n      0x01\n        /* \"#utility.yul\":14424:14428   */\n      dup3\n        /* \"#utility.yul\":14420:14432   */\n      and\n        /* \"#utility.yul\":14451:14469   */\n      dup1\n        /* \"#utility.yul\":14441:14443   */\n      tag_264\n      jumpi\n        /* \"#utility.yul\":14507:14511   */\n      0x7f\n        /* \"#utility.yul\":14499:14505   */\n      dup3\n        /* \"#utility.yul\":14495:14512   */\n      and\n        /* \"#utility.yul\":14485:14512   */\n      swap2\n      pop\n        /* \"#utility.yul\":14441:14443   */\n    tag_264:\n        /* \"#utility.yul\":14569:14571   */\n      0x20\n        /* \"#utility.yul\":14561:14567   */\n      dup3\n        /* \"#utility.yul\":14558:14572   */\n      lt\n        /* \"#utility.yul\":14538:14556   */\n      dup2\n        /* \"#utility.yul\":14535:14573   */\n      eq\n        /* \"#utility.yul\":14532:14534   */\n      iszero\n      tag_265\n      jumpi\n        /* \"#utility.yul\":14588:14606   */\n      tag_266\n      tag_267\n      jump\t// in\n    tag_266:\n        /* \"#utility.yul\":14532:14534   */\n    tag_265:\n        /* \"#utility.yul\":14353:14622   */\n      pop\n      swap2\n      swap1\n      pop\n      jump\t// out\n        /* \"#utility.yul\":14628:14808   */\n    tag_268:\n        /* \"#utility.yul\":14676:14753   */\n      0x4e487b7100000000000000000000000000000000000000000000000000000000\n        /* \"#utility.yul\":14673:14674   */\n      0x00\n        /* \"#utility.yul\":14666:14754   */\n      mstore\n        /* \"#utility.yul\":14773:14777   */\n      0x21\n        /* \"#utility.yul\":14770:14771   */\n      0x04\n        /* \"#utility.yul\":14763:14778   */\n      mstore\n        /* \"#utility.yul\":14797:14801   */\n      0x24\n        /* \"#utility.yul\":14794:14795   */\n      0x00\n        /* \"#utility.yul\":14787:14802   */\n      revert\n        /* \"#utility.yul\":14814:14994   */\n    tag_267:\n        /* \"#utility.yul\":14862:14939   */\n      0x4e487b7100000000000000000000000000000000000000000000000000000000\n        /* \"#utility.yul\":14859:14860   */\n      0x00\n        /* \"#utility.yul\":14852:14940   */\n      mstore\n        /* \"#utility.yul\":14959:14963   */\n      0x22\n        /* \"#utility.yul\":14956:14957   */\n      0x04\n        /* \"#utility.yul\":14949:14964   */\n      mstore\n        /* \"#utility.yul\":14983:14987   */\n      0x24\n        /* \"#utility.yul\":14980:14981   */\n      0x00\n        /* \"#utility.yul\":14973:14988   */\n      revert\n        /* \"#utility.yul\":15000:15180   */\n    tag_237:\n        /* \"#utility.yul\":15048:15125   */\n      0x4e487b7100000000000000000000000000000000000000000000000000000000\n        /* \"#utility.yul\":15045:15046   */\n      0x00\n        /* \"#utility.yul\":15038:15126   */\n      mstore\n        /* \"#utility.yul\":15145:15149   */\n      0x41\n        /* \"#utility.yul\":15142:15143   */\n      0x04\n        /* \"#utility.yul\":15135:15150   */\n      mstore\n        /* \"#utility.yul\":15169:15173   */\n      0x24\n        /* \"#utility.yul\":15166:15167   */\n      0x00\n        /* \"#utility.yul\":15159:15174   */\n      revert\n        /* \"#utility.yul\":15186:15288   */\n    tag_177:\n      0x00\n        /* \"#utility.yul\":15278:15280   */\n      0x1f\n        /* \"#utility.yul\":15274:15281   */\n      not\n        /* \"#utility.yul\":15269:15271   */\n      0x1f\n        /* \"#utility.yul\":15262:15267   */\n      dup4\n        /* \"#utility.yul\":15258:15272   */\n      add\n        /* \"#utility.yul\":15254:15282   */\n      and\n        /* \"#utility.yul\":15244:15282   */\n      swap1\n      pop\n        /* \"#utility.yul\":15234:15288   */\n      swap2\n      swap1\n      pop\n      jump\t// out\n        /* \"#utility.yul\":15294:15410   */\n    tag_252:\n        /* \"#utility.yul\":15378:15379   */\n      0x02\n        /* \"#utility.yul\":15371:15376   */\n      dup2\n        /* \"#utility.yul\":15368:15380   */\n      lt\n        /* \"#utility.yul\":15358:15360   */\n      tag_274\n      jumpi\n        /* \"#utility.yul\":15384:15402   */\n      tag_275\n      tag_268\n      jump\t// in\n    tag_275:\n        /* \"#utility.yul\":15358:15360   */\n    tag_274:\n        /* \"#utility.yul\":15348:15410   */\n      pop\n      jump\t// out\n        /* \"#utility.yul\":15416:15538   */\n    tag_114:\n        /* \"#utility.yul\":15489:15513   */\n      tag_277\n        /* \"#utility.yul\":15507:15512   */\n      dup2\n        /* \"#utility.yul\":15489:15513   */\n      tag_159\n      jump\t// in\n    tag_277:\n        /* \"#utility.yul\":15482:15487   */\n      dup2\n        /* \"#utility.yul\":15479:15514   */\n      eq\n        /* \"#utility.yul\":15469:15471   */\n      tag_278\n      jumpi\n        /* \"#utility.yul\":15528:15529   */\n      0x00\n        /* \"#utility.yul\":15525:15526   */\n      dup1\n        /* \"#utility.yul\":15518:15530   */\n      revert\n        /* \"#utility.yul\":15469:15471   */\n    tag_278:\n        /* \"#utility.yul\":15459:15538   */\n      pop\n      jump\t// out\n        /* \"#utility.yul\":15544:15660   */\n    tag_118:\n        /* \"#utility.yul\":15614:15635   */\n      tag_280\n        /* \"#utility.yul\":15629:15634   */\n      dup2\n        /* \"#utility.yul\":15614:15635   */\n      tag_163\n      jump\t// in\n    tag_280:\n        /* \"#utility.yul\":15607:15612   */\n      dup2\n        /* \"#utility.yul\":15604:15636   */\n      eq\n        /* \"#utility.yul\":15594:15596   */\n      tag_281\n      jumpi\n        /* \"#utility.yul\":15650:15651   */\n      0x00\n        /* \"#utility.yul\":15647:15648   */\n      dup1\n        /* \"#utility.yul\":15640:15652   */\n      revert\n        /* \"#utility.yul\":15594:15596   */\n    tag_281:\n        /* \"#utility.yul\":15584:15660   */\n      pop\n      jump\t// out\n        /* \"#utility.yul\":15666:15776   */\n    tag_122:\n        /* \"#utility.yul\":15750:15751   */\n      0x02\n        /* \"#utility.yul\":15743:15748   */\n      dup2\n        /* \"#utility.yul\":15740:15752   */\n      lt\n        /* \"#utility.yul\":15730:15732   */\n      tag_283\n      jumpi\n        /* \"#utility.yul\":15766:15767   */\n      0x00\n        /* \"#utility.yul\":15763:15764   */\n      dup1\n        /* \"#utility.yul\":15756:15768   */\n      revert\n        /* \"#utility.yul\":15730:15732   */\n    tag_283:\n        /* \"#utility.yul\":15720:15776   */\n      pop\n      jump\t// out\n        /* \"#utility.yul\":15782:15904   */\n    tag_130:\n        /* \"#utility.yul\":15855:15879   */\n      tag_285\n        /* \"#utility.yul\":15873:15878   */\n      dup2\n        /* \"#utility.yul\":15855:15879   */\n      tag_193\n      jump\t// in\n    tag_285:\n        /* \"#utility.yul\":15848:15853   */\n      dup2\n        /* \"#utility.yul\":15845:15880   */\n      eq\n        /* \"#utility.yul\":15835:15837   */\n      tag_286\n      jumpi\n        /* \"#utility.yul\":15894:15895   */\n      0x00\n        /* \"#utility.yul\":15891:15892   */\n      dup1\n        /* \"#utility.yul\":15884:15896   */\n      revert\n        /* \"#utility.yul\":15835:15837   */\n    tag_286:\n        /* \"#utility.yul\":15825:15904   */\n      pop\n      jump\t// out\n\n    auxdata: 0xa26469706673582212207b000a31991aef28e17d62a074e59ddff57012a3cc79a8835a01ce125a21178c64736f6c63430008000033\n}\n",
				"bytecode": {
					"linkReferences": {},
					"object": "608060405234801561001057600080fd5b5061175e806100206000396000f3fe608060405234801561001057600080fd5b50600436106100625760003560e01c806310cf8c9114610067578063338e12eb14610083578063a19ed6861461009f578063a87430ba146100a9578063c2d8b28f146100db578063fa10736714610115575b600080fd5b610081600480360381019061007c9190610f9b565b610149565b005b61009d60048036038101906100989190610f47565b61058e565b005b6100a7610818565b005b6100c360048036038101906100be9190610f1e565b61098f565b6040516100d293929190611370565b60405180910390f35b6100f560048036038101906100f09190610f1e565b610a6e565b60405161010c9b9a9998979695949392919061123b565b60405180910390f35b61012f600480360381019061012a9190610f1e565b610c59565b6040516101409594939291906112f4565b60405180910390f35b600073ffffffffffffffffffffffffffffffffffffffff166000803373ffffffffffffffffffffffffffffffffffffffff1673ffffffffffffffffffffffffffffffffffffffff16815260200190815260200160002060010160009054906101000a900473ffffffffffffffffffffffffffffffffffffffff1673ffffffffffffffffffffffffffffffffffffffff16141561021a576040517f08c379a000000000000000000000000000000000000000000000000000000000815260040161021190611491565b60405180910390fd5b600073ffffffffffffffffffffffffffffffffffffffff16600160003373ffffffffffffffffffffffffffffffffffffffff1673ffffffffffffffffffffffffffffffffffffffff16815260200190815260200160002060000160009054906101000a900473ffffffffffffffffffffffffffffffffffffffff1673ffffffffffffffffffffffffffffffffffffffff16146102eb576040517f08c379a00000000000000000000000000000000000000000000000000000000081526004016102e290611431565b60405180910390fd5b6040518061016001604052803373ffffffffffffffffffffffffffffffffffffffff168152602001600073ffffffffffffffffffffffffffffffffffffffff1681526020018a81526020018981526020018881526020018781526020018615158152602001851515815260200184151581526020018315158152602001821515815250600160003373ffffffffffffffffffffffffffffffffffffffff1673ffffffffffffffffffffffffffffffffffffffff16815260200190815260200160002060008201518160000160006101000a81548173ffffffffffffffffffffffffffffffffffffffff021916908373ffffffffffffffffffffffffffffffffffffffff16021790555060208201518160010160006101000a81548173ffffffffffffffffffffffffffffffffffffffff021916908373ffffffffffffffffffffffffffffffffffffffff1602179055506040820151816002019080519060200190610457929190610dbf565b506060820151816003019080519060200190610474929190610dbf565b506080820151816004015560a0820151816005015560c08201518160060160006101000a81548160ff02191690831515021790555060e08201518160060160016101000a81548160ff0219169083151502179055506101008201518160060160026101000a81548160ff0219169083151502179055506101208201518160060160036101000a81548160ff0219169083151502179055506101408201518160060160046101000a81548160ff0219169083151502179055509050503373ffffffffffffffffffffffffffffffffffffffff167f3324f8f8b2e4e967b053a9136eefa38b219fe4acc9016838afd9c5f1540e23328a8a8a8a60405161057b94939291906113de565b60405180910390a2505050505050505050565b33600073ffffffffffffffffffffffffffffffffffffffff166000808373ffffffffffffffffffffffffffffffffffffffff1673ffffffffffffffffffffffffffffffffffffffff16815260200190815260200160002060010160009054906101000a900473ffffffffffffffffffffffffffffffffffffffff1673ffffffffffffffffffffffffffffffffffffffff161461065f576040517f08c379a000000000000000000000000000000000000000000000000000000000815260040161065690611471565b60405180910390fd5b60405180606001604052808481526020013373ffffffffffffffffffffffffffffffffffffffff1681526020018360018111156106c5577f4e487b7100000000000000000000000000000000000000000000000000000000600052602160045260246000fd5b8152506000803373ffffffffffffffffffffffffffffffffffffffff1673ffffffffffffffffffffffffffffffffffffffff1681526020019081526020016000206000820151816000019080519060200190610722929190610dbf565b5060208201518160010160006101000a81548173ffffffffffffffffffffffffffffffffffffffff021916908373ffffffffffffffffffffffffffffffffffffffff16021790555060408201518160010160146101000a81548160ff021916908360018111156107bb577f4e487b7100000000000000000000000000000000000000000000000000000000600052602160045260246000fd5b02179055509050503373ffffffffffffffffffffffffffffffffffffffff167fc2e5d5da58bd71d1a2d14cdef02a4256d971b728088f8190d067ccfbae3bd73e848460405161080b9291906113ae565b60405180910390a2505050565b33600073ffffffffffffffffffffffffffffffffffffffff166000808373ffffffffffffffffffffffffffffffffffffffff1673ffffffffffffffffffffffffffffffffffffffff16815260200190815260200160002060010160009054906101000a900473ffffffffffffffffffffffffffffffffffffffff1673ffffffffffffffffffffffffffffffffffffffff1614156108ea576040517f08c379a00000000000000000000000000000000000000000000000000000000081526004016108e190611451565b60405180910390fd5b60008060003373ffffffffffffffffffffffffffffffffffffffff1673ffffffffffffffffffffffffffffffffffffffff16815260200190815260200160002060010160149054906101000a900460ff1690503373ffffffffffffffffffffffffffffffffffffffff167fc1e1f43082cc0942da58f0dbc1b91c167501c02c01e62ca603480bbded03b5f3826040516109839190611355565b60405180910390a25050565b60006020528060005260406000206000915090508060000180546109b2906115ef565b80601f01602080910402602001604051908101604052809291908181526020018280546109de906115ef565b8015610a2b5780601f10610a0057610100808354040283529160200191610a2b565b820191906000526020600020905b815481529060010190602001808311610a0e57829003601f168201915b5050505050908060010160009054906101000a900473ffffffffffffffffffffffffffffffffffffffff16908060010160149054906101000a900460ff16905083565b60016020528060005260406000206000915090508060000160009054906101000a900473ffffffffffffffffffffffffffffffffffffffff16908060010160009054906101000a900473ffffffffffffffffffffffffffffffffffffffff1690806002018054610add906115ef565b80601f0160208091040260200160405190810160405280929190818152602001828054610b09906115ef565b8015610b565780601f10610b2b57610100808354040283529160200191610b56565b820191906000526020600020905b815481529060010190602001808311610b3957829003601f168201915b505050505090806003018054610b6b906115ef565b80601f0160208091040260200160405190810160405280929190818152602001828054610b97906115ef565b8015610be45780601f10610bb957610100808354040283529160200191610be4565b820191906000526020600020905b815481529060010190602001808311610bc757829003601f168201915b5050505050908060040154908060050154908060060160009054906101000a900460ff16908060060160019054906101000a900460ff16908060060160029054906101000a900460ff16908060060160039054906101000a900460ff16908060060160049054906101000a900460ff1690508b565b60026020528060005260406000206000915090508060000160009054906101000a900473ffffffffffffffffffffffffffffffffffffffff1690806001018054610ca2906115ef565b80601f0160208091040260200160405190810160405280929190818152602001828054610cce906115ef565b8015610d1b5780601f10610cf057610100808354040283529160200191610d1b565b820191906000526020600020905b815481529060010190602001808311610cfe57829003601f168201915b505050505090806002018054610d30906115ef565b80601f0160208091040260200160405190810160405280929190818152602001828054610d5c906115ef565b8015610da95780601f10610d7e57610100808354040283529160200191610da9565b820191906000526020600020905b815481529060010190602001808311610d8c57829003601f168201915b5050505050908060030154908060040154905085565b828054610dcb906115ef565b90600052602060002090601f016020900481019282610ded5760008555610e34565b82601f10610e0657805160ff1916838001178555610e34565b82800160010185558215610e34579182015b82811115610e33578251825591602001919060010190610e18565b5b509050610e419190610e45565b5090565b5b80821115610e5e576000816000905550600101610e46565b5090565b6000610e75610e70846114e2565b6114b1565b905082815260208101848484011115610e8d57600080fd5b610e988482856115ad565b509392505050565b600081359050610eaf816116d3565b92915050565b600081359050610ec4816116ea565b92915050565b600081359050610ed981611701565b92915050565b600082601f830112610ef057600080fd5b8135610f00848260208601610e62565b91505092915050565b600081359050610f1881611711565b92915050565b600060208284031215610f3057600080fd5b6000610f3e84828501610ea0565b91505092915050565b60008060408385031215610f5a57600080fd5b600083013567ffffffffffffffff811115610f7457600080fd5b610f8085828601610edf565b9250506020610f9185828601610eca565b9150509250929050565b60008060008060008060008060006101208a8c031215610fba57600080fd5b60008a013567ffffffffffffffff811115610fd457600080fd5b610fe08c828d01610edf565b99505060208a013567ffffffffffffffff811115610ffd57600080fd5b6110098c828d01610edf565b985050604061101a8c828d01610f09565b975050606061102b8c828d01610f09565b965050608061103c8c828d01610eb5565b95505060a061104d8c828d01610eb5565b94505060c061105e8c828d01610eb5565b93505060e061106f8c828d01610eb5565b9250506101006110818c828d01610eb5565b9150509295985092959850929598565b61109a81611540565b82525050565b6110a98161152e565b82525050565b6110b881611552565b82525050565b6110c78161159b565b82525050565b60006110d882611512565b6110e2818561151d565b93506110f28185602086016115bc565b6110fb816116ae565b840191505092915050565b600061111360288361151d565b91507f596f7520616c7265616479206861766520616e2061637469766520726964652060008301527f726571756573742e0000000000000000000000000000000000000000000000006020830152604082019050919050565b600061117960148361151d565b91507f5573657220646f6573206e6f742065786973742e0000000000000000000000006000830152602082019050919050565b60006111b960148361151d565b91507f5573657220616c7265616479206578697374732e0000000000000000000000006000830152602082019050919050565b60006111f9601c8361151d565b91507f596f75206d757374207265676973746572206173206120757365722e000000006000830152602082019050919050565b61123581611591565b82525050565b600061016082019050611251600083018e6110a0565b61125e602083018d611091565b8181036040830152611270818c6110cd565b90508181036060830152611284818b6110cd565b9050611293608083018a61122c565b6112a060a083018961122c565b6112ad60c08301886110af565b6112ba60e08301876110af565b6112c86101008301866110af565b6112d66101208301856110af565b6112e46101408301846110af565b9c9b505050505050505050505050565b600060a08201905061130960008301886110a0565b818103602083015261131b81876110cd565b9050818103604083015261132f81866110cd565b905061133e606083018561122c565b61134b608083018461122c565b9695505050505050565b600060208201905061136a60008301846110be565b92915050565b6000606082019050818103600083015261138a81866110cd565b905061139960208301856110a0565b6113a660408301846110be565b949350505050565b600060408201905081810360008301526113c881856110cd565b90506113d760208301846110be565b9392505050565b600060808201905081810360008301526113f881876110cd565b9050818103602083015261140c81866110cd565b905061141b604083018561122c565b611428606083018461122c565b95945050505050565b6000602082019050818103600083015261144a81611106565b9050919050565b6000602082019050818103600083015261146a8161116c565b9050919050565b6000602082019050818103600083015261148a816111ac565b9050919050565b600060208201905081810360008301526114aa816111ec565b9050919050565b6000604051905081810181811067ffffffffffffffff821117156114d8576114d761167f565b5b8060405250919050565b600067ffffffffffffffff8211156114fd576114fc61167f565b5b601f19601f8301169050602081019050919050565b600081519050919050565b600082825260208201905092915050565b600061153982611571565b9050919050565b600061154b82611571565b9050919050565b60008115159050919050565b600081905061156c826116bf565b919050565b600073ffffffffffffffffffffffffffffffffffffffff82169050919050565b6000819050919050565b60006115a68261155e565b9050919050565b82818337600083830152505050565b60005b838110156115da5780820151818401526020810190506115bf565b838111156115e9576000848401525b50505050565b6000600282049050600182168061160757607f821691505b6020821081141561161b5761161a611650565b5b50919050565b7f4e487b7100000000000000000000000000000000000000000000000000000000600052602160045260246000fd5b7f4e487b7100000000000000000000000000000000000000000000000000000000600052602260045260246000fd5b7f4e487b7100000000000000000000000000000000000000000000000000000000600052604160045260246000fd5b6000601f19601f8301169050919050565b600281106116d0576116cf611621565b5b50565b6116dc8161152e565b81146116e757600080fd5b50565b6116f381611552565b81146116fe57600080fd5b50565b6002811061170e57600080fd5b50565b61171a81611591565b811461172557600080fd5b5056fea26469706673582212207b000a31991aef28e17d62a074e59ddff57012a3cc79a8835a01ce125a21178c64736f6c63430008000033",
					"opcodes": "PUSH1 0x80 PUSH1 0x40 MSTORE CALLVALUE DUP1 ISZERO PUSH2 0x10 JUMPI PUSH1 0x0 DUP1 REVERT JUMPDEST POP PUSH2 0x175E DUP1 PUSH2 0x20 PUSH1 0x0 CODECOPY PUSH1 0x0 RETURN INVALID PUSH1 0x80 PUSH1 0x40 MSTORE CALLVALUE DUP1 ISZERO PUSH2 0x10 JUMPI PUSH1 0x0 DUP1 REVERT JUMPDEST POP PUSH1 0x4 CALLDATASIZE LT PUSH2 0x62 JUMPI PUSH1 0x0 CALLDATALOAD PUSH1 0xE0 SHR DUP1 PUSH4 0x10CF8C91 EQ PUSH2 0x67 JUMPI DUP1 PUSH4 0x338E12EB EQ PUSH2 0x83 JUMPI DUP1 PUSH4 0xA19ED686 EQ PUSH2 0x9F JUMPI DUP1 PUSH4 0xA87430BA EQ PUSH2 0xA9 JUMPI DUP1 PUSH4 0xC2D8B28F EQ PUSH2 0xDB JUMPI DUP1 PUSH4 0xFA107367 EQ PUSH2 0x115 JUMPI JUMPDEST PUSH1 0x0 DUP1 REVERT JUMPDEST PUSH2 0x81 PUSH1 0x4 DUP1 CALLDATASIZE SUB DUP2 ADD SWAP1 PUSH2 0x7C SWAP2 SWAP1 PUSH2 0xF9B JUMP JUMPDEST PUSH2 0x149 JUMP JUMPDEST STOP JUMPDEST PUSH2 0x9D PUSH1 0x4 DUP1 CALLDATASIZE SUB DUP2 ADD SWAP1 PUSH2 0x98 SWAP2 SWAP1 PUSH2 0xF47 JUMP JUMPDEST PUSH2 0x58E JUMP JUMPDEST STOP JUMPDEST PUSH2 0xA7 PUSH2 0x818 JUMP JUMPDEST STOP JUMPDEST PUSH2 0xC3 PUSH1 0x4 DUP1 CALLDATASIZE SUB DUP2 ADD SWAP1 PUSH2 0xBE SWAP2 SWAP1 PUSH2 0xF1E JUMP JUMPDEST PUSH2 0x98F JUMP JUMPDEST PUSH1 0x40 MLOAD PUSH2 0xD2 SWAP4 SWAP3 SWAP2 SWAP1 PUSH2 0x1370 JUMP JUMPDEST PUSH1 0x40 MLOAD DUP1 SWAP2 SUB SWAP1 RETURN JUMPDEST PUSH2 0xF5 PUSH1 0x4 DUP1 CALLDATASIZE SUB DUP2 ADD SWAP1 PUSH2 0xF0 SWAP2 SWAP1 PUSH2 0xF1E JUMP JUMPDEST PUSH2 0xA6E JUMP JUMPDEST PUSH1 0x40 MLOAD PUSH2 0x10C SWAP12 SWAP11 SWAP10 SWAP9 SWAP8 SWAP7 SWAP6 SWAP5 SWAP4 SWAP3 SWAP2 SWAP1 PUSH2 0x123B JUMP JUMPDEST PUSH1 0x40 MLOAD DUP1 SWAP2 SUB SWAP1 RETURN JUMPDEST PUSH2 0x12F PUSH1 0x4 DUP1 CALLDATASIZE SUB DUP2 ADD SWAP1 PUSH2 0x12A SWAP2 SWAP1 PUSH2 0xF1E JUMP JUMPDEST PUSH2 0xC59 JUMP JUMPDEST PUSH1 0x40 MLOAD PUSH2 0x140 SWAP6 SWAP5 SWAP4 SWAP3 SWAP2 SWAP1 PUSH2 0x12F4 JUMP JUMPDEST PUSH1 0x40 MLOAD DUP1 SWAP2 SUB SWAP1 RETURN JUMPDEST PUSH1 0x0 PUSH20 0xFFFFFFFFFFFFFFFFFFFFFFFFFFFFFFFFFFFFFFFF AND PUSH1 0x0 DUP1 CALLER PUSH20 0xFFFFFFFFFFFFFFFFFFFFFFFFFFFFFFFFFFFFFFFF AND PUSH20 0xFFFFFFFFFFFFFFFFFFFFFFFFFFFFFFFFFFFFFFFF AND DUP2 MSTORE PUSH1 0x20 ADD SWAP1 DUP2 MSTORE PUSH1 0x20 ADD PUSH1 0x0 KECCAK256 PUSH1 0x1 ADD PUSH1 0x0 SWAP1 SLOAD SWAP1 PUSH2 0x100 EXP SWAP1 DIV PUSH20 0xFFFFFFFFFFFFFFFFFFFFFFFFFFFFFFFFFFFFFFFF AND PUSH20 0xFFFFFFFFFFFFFFFFFFFFFFFFFFFFFFFFFFFFFFFF AND EQ ISZERO PUSH2 0x21A JUMPI PUSH1 0x40 MLOAD PUSH32 0x8C379A000000000000000000000000000000000000000000000000000000000 DUP2 MSTORE PUSH1 0x4 ADD PUSH2 0x211 SWAP1 PUSH2 0x1491 JUMP JUMPDEST PUSH1 0x40 MLOAD DUP1 SWAP2 SUB SWAP1 REVERT JUMPDEST PUSH1 0x0 PUSH20 0xFFFFFFFFFFFFFFFFFFFFFFFFFFFFFFFFFFFFFFFF AND PUSH1 0x1 PUSH1 0x0 CALLER PUSH20 0xFFFFFFFFFFFFFFFFFFFFFFFFFFFFFFFFFFFFFFFF AND PUSH20 0xFFFFFFFFFFFFFFFFFFFFFFFFFFFFFFFFFFFFFFFF AND DUP2 MSTORE PUSH1 0x20 ADD SWAP1 DUP2 MSTORE PUSH1 0x20 ADD PUSH1 0x0 KECCAK256 PUSH1 0x0 ADD PUSH1 0x0 SWAP1 SLOAD SWAP1 PUSH2 0x100 EXP SWAP1 DIV PUSH20 0xFFFFFFFFFFFFFFFFFFFFFFFFFFFFFFFFFFFFFFFF AND PUSH20 0xFFFFFFFFFFFFFFFFFFFFFFFFFFFFFFFFFFFFFFFF AND EQ PUSH2 0x2EB JUMPI PUSH1 0x40 MLOAD PUSH32 0x8C379A000000000000000000000000000000000000000000000000000000000 DUP2 MSTORE PUSH1 0x4 ADD PUSH2 0x2E2 SWAP1 PUSH2 0x1431 JUMP JUMPDEST PUSH1 0x40 MLOAD DUP1 SWAP2 SUB SWAP1 REVERT JUMPDEST PUSH1 0x40 MLOAD DUP1 PUSH2 0x160 ADD PUSH1 0x40 MSTORE DUP1 CALLER PUSH20 0xFFFFFFFFFFFFFFFFFFFFFFFFFFFFFFFFFFFFFFFF AND DUP2 MSTORE PUSH1 0x20 ADD PUSH1 0x0 PUSH20 0xFFFFFFFFFFFFFFFFFFFFFFFFFFFFFFFFFFFFFFFF AND DUP2 MSTORE PUSH1 0x20 ADD DUP11 DUP2 MSTORE PUSH1 0x20 ADD DUP10 DUP2 MSTORE PUSH1 0x20 ADD DUP9 DUP2 MSTORE PUSH1 0x20 ADD DUP8 DUP2 MSTORE PUSH1 0x20 ADD DUP7 ISZERO ISZERO DUP2 MSTORE PUSH1 0x20 ADD DUP6 ISZERO ISZERO DUP2 MSTORE PUSH1 0x20 ADD DUP5 ISZERO ISZERO DUP2 MSTORE PUSH1 0x20 ADD DUP4 ISZERO ISZERO DUP2 MSTORE PUSH1 0x20 ADD DUP3 ISZERO ISZERO DUP2 MSTORE POP PUSH1 0x1 PUSH1 0x0 CALLER PUSH20 0xFFFFFFFFFFFFFFFFFFFFFFFFFFFFFFFFFFFFFFFF AND PUSH20 0xFFFFFFFFFFFFFFFFFFFFFFFFFFFFFFFFFFFFFFFF AND DUP2 MSTORE PUSH1 0x20 ADD SWAP1 DUP2 MSTORE PUSH1 0x20 ADD PUSH1 0x0 KECCAK256 PUSH1 0x0 DUP3 ADD MLOAD DUP2 PUSH1 0x0 ADD PUSH1 0x0 PUSH2 0x100 EXP DUP2 SLOAD DUP2 PUSH20 0xFFFFFFFFFFFFFFFFFFFFFFFFFFFFFFFFFFFFFFFF MUL NOT AND SWAP1 DUP4 PUSH20 0xFFFFFFFFFFFFFFFFFFFFFFFFFFFFFFFFFFFFFFFF AND MUL OR SWAP1 SSTORE POP PUSH1 0x20 DUP3 ADD MLOAD DUP2 PUSH1 0x1 ADD PUSH1 0x0 PUSH2 0x100 EXP DUP2 SLOAD DUP2 PUSH20 0xFFFFFFFFFFFFFFFFFFFFFFFFFFFFFFFFFFFFFFFF MUL NOT AND SWAP1 DUP4 PUSH20 0xFFFFFFFFFFFFFFFFFFFFFFFFFFFFFFFFFFFFFFFF AND MUL OR SWAP1 SSTORE POP PUSH1 0x40 DUP3 ADD MLOAD DUP2 PUSH1 0x2 ADD SWAP1 DUP1 MLOAD SWAP1 PUSH1 0x20 ADD SWAP1 PUSH2 0x457 SWAP3 SWAP2 SWAP1 PUSH2 0xDBF JUMP JUMPDEST POP PUSH1 0x60 DUP3 ADD MLOAD DUP2 PUSH1 0x3 ADD SWAP1 DUP1 MLOAD SWAP1 PUSH1 0x20 ADD SWAP1 PUSH2 0x474 SWAP3 SWAP2 SWAP1 PUSH2 0xDBF JUMP JUMPDEST POP PUSH1 0x80 DUP3 ADD MLOAD DUP2 PUSH1 0x4 ADD SSTORE PUSH1 0xA0 DUP3 ADD MLOAD DUP2 PUSH1 0x5 ADD SSTORE PUSH1 0xC0 DUP3 ADD MLOAD DUP2 PUSH1 0x6 ADD PUSH1 0x0 PUSH2 0x100 EXP DUP2 SLOAD DUP2 PUSH1 0xFF MUL NOT AND SWAP1 DUP4 ISZERO ISZERO MUL OR SWAP1 SSTORE POP PUSH1 0xE0 DUP3 ADD MLOAD DUP2 PUSH1 0x6 ADD PUSH1 0x1 PUSH2 0x100 EXP DUP2 SLOAD DUP2 PUSH1 0xFF MUL NOT AND SWAP1 DUP4 ISZERO ISZERO MUL OR SWAP1 SSTORE POP PUSH2 0x100 DUP3 ADD MLOAD DUP2 PUSH1 0x6 ADD PUSH1 0x2 PUSH2 0x100 EXP DUP2 SLOAD DUP2 PUSH1 0xFF MUL NOT AND SWAP1 DUP4 ISZERO ISZERO MUL OR SWAP1 SSTORE POP PUSH2 0x120 DUP3 ADD MLOAD DUP2 PUSH1 0x6 ADD PUSH1 0x3 PUSH2 0x100 EXP DUP2 SLOAD DUP2 PUSH1 0xFF MUL NOT AND SWAP1 DUP4 ISZERO ISZERO MUL OR SWAP1 SSTORE POP PUSH2 0x140 DUP3 ADD MLOAD DUP2 PUSH1 0x6 ADD PUSH1 0x4 PUSH2 0x100 EXP DUP2 SLOAD DUP2 PUSH1 0xFF MUL NOT AND SWAP1 DUP4 ISZERO ISZERO MUL OR SWAP1 SSTORE POP SWAP1 POP POP CALLER PUSH20 0xFFFFFFFFFFFFFFFFFFFFFFFFFFFFFFFFFFFFFFFF AND PUSH32 0x3324F8F8B2E4E967B053A9136EEFA38B219FE4ACC9016838AFD9C5F1540E2332 DUP11 DUP11 DUP11 DUP11 PUSH1 0x40 MLOAD PUSH2 0x57B SWAP5 SWAP4 SWAP3 SWAP2 SWAP1 PUSH2 0x13DE JUMP JUMPDEST PUSH1 0x40 MLOAD DUP1 SWAP2 SUB SWAP1 LOG2 POP POP POP POP POP POP POP POP POP JUMP JUMPDEST CALLER PUSH1 0x0 PUSH20 0xFFFFFFFFFFFFFFFFFFFFFFFFFFFFFFFFFFFFFFFF AND PUSH1 0x0 DUP1 DUP4 PUSH20 0xFFFFFFFFFFFFFFFFFFFFFFFFFFFFFFFFFFFFFFFF AND PUSH20 0xFFFFFFFFFFFFFFFFFFFFFFFFFFFFFFFFFFFFFFFF AND DUP2 MSTORE PUSH1 0x20 ADD SWAP1 DUP2 MSTORE PUSH1 0x20 ADD PUSH1 0x0 KECCAK256 PUSH1 0x1 ADD PUSH1 0x0 SWAP1 SLOAD SWAP1 PUSH2 0x100 EXP SWAP1 DIV PUSH20 0xFFFFFFFFFFFFFFFFFFFFFFFFFFFFFFFFFFFFFFFF AND PUSH20 0xFFFFFFFFFFFFFFFFFFFFFFFFFFFFFFFFFFFFFFFF AND EQ PUSH2 0x65F JUMPI PUSH1 0x40 MLOAD PUSH32 0x8C379A000000000000000000000000000000000000000000000000000000000 DUP2 MSTORE PUSH1 0x4 ADD PUSH2 0x656 SWAP1 PUSH2 0x1471 JUMP JUMPDEST PUSH1 0x40 MLOAD DUP1 SWAP2 SUB SWAP1 REVERT JUMPDEST PUSH1 0x40 MLOAD DUP1 PUSH1 0x60 ADD PUSH1 0x40 MSTORE DUP1 DUP5 DUP2 MSTORE PUSH1 0x20 ADD CALLER PUSH20 0xFFFFFFFFFFFFFFFFFFFFFFFFFFFFFFFFFFFFFFFF AND DUP2 MSTORE PUSH1 0x20 ADD DUP4 PUSH1 0x1 DUP2 GT ISZERO PUSH2 0x6C5 JUMPI PUSH32 0x4E487B7100000000000000000000000000000000000000000000000000000000 PUSH1 0x0 MSTORE PUSH1 0x21 PUSH1 0x4 MSTORE PUSH1 0x24 PUSH1 0x0 REVERT JUMPDEST DUP2 MSTORE POP PUSH1 0x0 DUP1 CALLER PUSH20 0xFFFFFFFFFFFFFFFFFFFFFFFFFFFFFFFFFFFFFFFF AND PUSH20 0xFFFFFFFFFFFFFFFFFFFFFFFFFFFFFFFFFFFFFFFF AND DUP2 MSTORE PUSH1 0x20 ADD SWAP1 DUP2 MSTORE PUSH1 0x20 ADD PUSH1 0x0 KECCAK256 PUSH1 0x0 DUP3 ADD MLOAD DUP2 PUSH1 0x0 ADD SWAP1 DUP1 MLOAD SWAP1 PUSH1 0x20 ADD SWAP1 PUSH2 0x722 SWAP3 SWAP2 SWAP1 PUSH2 0xDBF JUMP JUMPDEST POP PUSH1 0x20 DUP3 ADD MLOAD DUP2 PUSH1 0x1 ADD PUSH1 0x0 PUSH2 0x100 EXP DUP2 SLOAD DUP2 PUSH20 0xFFFFFFFFFFFFFFFFFFFFFFFFFFFFFFFFFFFFFFFF MUL NOT AND SWAP1 DUP4 PUSH20 0xFFFFFFFFFFFFFFFFFFFFFFFFFFFFFFFFFFFFFFFF AND MUL OR SWAP1 SSTORE POP PUSH1 0x40 DUP3 ADD MLOAD DUP2 PUSH1 0x1 ADD PUSH1 0x14 PUSH2 0x100 EXP DUP2 SLOAD DUP2 PUSH1 0xFF MUL NOT AND SWAP1 DUP4 PUSH1 0x1 DUP2 GT ISZERO PUSH2 0x7BB JUMPI PUSH32 0x4E487B7100000000000000000000000000000000000000000000000000000000 PUSH1 0x0 MSTORE PUSH1 0x21 PUSH1 0x4 MSTORE PUSH1 0x24 PUSH1 0x0 REVERT JUMPDEST MUL OR SWAP1 SSTORE POP SWAP1 POP POP CALLER PUSH20 0xFFFFFFFFFFFFFFFFFFFFFFFFFFFFFFFFFFFFFFFF AND PUSH32 0xC2E5D5DA58BD71D1A2D14CDEF02A4256D971B728088F8190D067CCFBAE3BD73E DUP5 DUP5 PUSH1 0x40 MLOAD PUSH2 0x80B SWAP3 SWAP2 SWAP1 PUSH2 0x13AE JUMP JUMPDEST PUSH1 0x40 MLOAD DUP1 SWAP2 SUB SWAP1 LOG2 POP POP POP JUMP JUMPDEST CALLER PUSH1 0x0 PUSH20 0xFFFFFFFFFFFFFFFFFFFFFFFFFFFFFFFFFFFFFFFF AND PUSH1 0x0 DUP1 DUP4 PUSH20 0xFFFFFFFFFFFFFFFFFFFFFFFFFFFFFFFFFFFFFFFF AND PUSH20 0xFFFFFFFFFFFFFFFFFFFFFFFFFFFFFFFFFFFFFFFF AND DUP2 MSTORE PUSH1 0x20 ADD SWAP1 DUP2 MSTORE PUSH1 0x20 ADD PUSH1 0x0 KECCAK256 PUSH1 0x1 ADD PUSH1 0x0 SWAP1 SLOAD SWAP1 PUSH2 0x100 EXP SWAP1 DIV PUSH20 0xFFFFFFFFFFFFFFFFFFFFFFFFFFFFFFFFFFFFFFFF AND PUSH20 0xFFFFFFFFFFFFFFFFFFFFFFFFFFFFFFFFFFFFFFFF AND EQ ISZERO PUSH2 0x8EA JUMPI PUSH1 0x40 MLOAD PUSH32 0x8C379A000000000000000000000000000000000000000000000000000000000 DUP2 MSTORE PUSH1 0x4 ADD PUSH2 0x8E1 SWAP1 PUSH2 0x1451 JUMP JUMPDEST PUSH1 0x40 MLOAD DUP1 SWAP2 SUB SWAP1 REVERT JUMPDEST PUSH1 0x0 DUP1 PUSH1 0x0 CALLER PUSH20 0xFFFFFFFFFFFFFFFFFFFFFFFFFFFFFFFFFFFFFFFF AND PUSH20 0xFFFFFFFFFFFFFFFFFFFFFFFFFFFFFFFFFFFFFFFF AND DUP2 MSTORE PUSH1 0x20 ADD SWAP1 DUP2 MSTORE PUSH1 0x20 ADD PUSH1 0x0 KECCAK256 PUSH1 0x1 ADD PUSH1 0x14 SWAP1 SLOAD SWAP1 PUSH2 0x100 EXP SWAP1 DIV PUSH1 0xFF AND SWAP1 POP CALLER PUSH20 0xFFFFFFFFFFFFFFFFFFFFFFFFFFFFFFFFFFFFFFFF AND PUSH32 0xC1E1F43082CC0942DA58F0DBC1B91C167501C02C01E62CA603480BBDED03B5F3 DUP3 PUSH1 0x40 MLOAD PUSH2 0x983 SWAP2 SWAP1 PUSH2 0x1355 JUMP JUMPDEST PUSH1 0x40 MLOAD DUP1 SWAP2 SUB SWAP1 LOG2 POP POP JUMP JUMPDEST PUSH1 0x0 PUSH1 0x20 MSTORE DUP1 PUSH1 0x0 MSTORE PUSH1 0x40 PUSH1 0x0 KECCAK256 PUSH1 0x0 SWAP2 POP SWAP1 POP DUP1 PUSH1 0x0 ADD DUP1 SLOAD PUSH2 0x9B2 SWAP1 PUSH2 0x15EF JUMP JUMPDEST DUP1 PUSH1 0x1F ADD PUSH1 0x20 DUP1 SWAP2 DIV MUL PUSH1 0x20 ADD PUSH1 0x40 MLOAD SWAP1 DUP2 ADD PUSH1 0x40 MSTORE DUP1 SWAP3 SWAP2 SWAP1 DUP2 DUP2 MSTORE PUSH1 0x20 ADD DUP3 DUP1 SLOAD PUSH2 0x9DE SWAP1 PUSH2 0x15EF JUMP JUMPDEST DUP1 ISZERO PUSH2 0xA2B JUMPI DUP1 PUSH1 0x1F LT PUSH2 0xA00 JUMPI PUSH2 0x100 DUP1 DUP4 SLOAD DIV MUL DUP4 MSTORE SWAP2 PUSH1 0x20 ADD SWAP2 PUSH2 0xA2B JUMP JUMPDEST DUP3 ADD SWAP2 SWAP1 PUSH1 0x0 MSTORE PUSH1 0x20 PUSH1 0x0 KECCAK256 SWAP1 JUMPDEST DUP2 SLOAD DUP2 MSTORE SWAP1 PUSH1 0x1 ADD SWAP1 PUSH1 0x20 ADD DUP1 DUP4 GT PUSH2 0xA0E JUMPI DUP3 SWAP1 SUB PUSH1 0x1F AND DUP3 ADD SWAP2 JUMPDEST POP POP POP POP POP SWAP1 DUP1 PUSH1 0x1 ADD PUSH1 0x0 SWAP1 SLOAD SWAP1 PUSH2 0x100 EXP SWAP1 DIV PUSH20 0xFFFFFFFFFFFFFFFFFFFFFFFFFFFFFFFFFFFFFFFF AND SWAP1 DUP1 PUSH1 0x1 ADD PUSH1 0x14 SWAP1 SLOAD SWAP1 PUSH2 0x100 EXP SWAP1 DIV PUSH1 0xFF AND SWAP1 POP DUP4 JUMP JUMPDEST PUSH1 0x1 PUSH1 0x20 MSTORE DUP1 PUSH1 0x0 MSTORE PUSH1 0x40 PUSH1 0x0 KECCAK256 PUSH1 0x0 SWAP2 POP SWAP1 POP DUP1 PUSH1 0x0 ADD PUSH1 0x0 SWAP1 SLOAD SWAP1 PUSH2 0x100 EXP SWAP1 DIV PUSH20 0xFFFFFFFFFFFFFFFFFFFFFFFFFFFFFFFFFFFFFFFF AND SWAP1 DUP1 PUSH1 0x1 ADD PUSH1 0x0 SWAP1 SLOAD SWAP1 PUSH2 0x100 EXP SWAP1 DIV PUSH20 0xFFFFFFFFFFFFFFFFFFFFFFFFFFFFFFFFFFFFFFFF AND SWAP1 DUP1 PUSH1 0x2 ADD DUP1 SLOAD PUSH2 0xADD SWAP1 PUSH2 0x15EF JUMP JUMPDEST DUP1 PUSH1 0x1F ADD PUSH1 0x20 DUP1 SWAP2 DIV MUL PUSH1 0x20 ADD PUSH1 0x40 MLOAD SWAP1 DUP2 ADD PUSH1 0x40 MSTORE DUP1 SWAP3 SWAP2 SWAP1 DUP2 DUP2 MSTORE PUSH1 0x20 ADD DUP3 DUP1 SLOAD PUSH2 0xB09 SWAP1 PUSH2 0x15EF JUMP JUMPDEST DUP1 ISZERO PUSH2 0xB56 JUMPI DUP1 PUSH1 0x1F LT PUSH2 0xB2B JUMPI PUSH2 0x100 DUP1 DUP4 SLOAD DIV MUL DUP4 MSTORE SWAP2 PUSH1 0x20 ADD SWAP2 PUSH2 0xB56 JUMP JUMPDEST DUP3 ADD SWAP2 SWAP1 PUSH1 0x0 MSTORE PUSH1 0x20 PUSH1 0x0 KECCAK256 SWAP1 JUMPDEST DUP2 SLOAD DUP2 MSTORE SWAP1 PUSH1 0x1 ADD SWAP1 PUSH1 0x20 ADD DUP1 DUP4 GT PUSH2 0xB39 JUMPI DUP3 SWAP1 SUB PUSH1 0x1F AND DUP3 ADD SWAP2 JUMPDEST POP POP POP POP POP SWAP1 DUP1 PUSH1 0x3 ADD DUP1 SLOAD PUSH2 0xB6B SWAP1 PUSH2 0x15EF JUMP JUMPDEST DUP1 PUSH1 0x1F ADD PUSH1 0x20 DUP1 SWAP2 DIV MUL PUSH1 0x20 ADD PUSH1 0x40 MLOAD SWAP1 DUP2 ADD PUSH1 0x40 MSTORE DUP1 SWAP3 SWAP2 SWAP1 DUP2 DUP2 MSTORE PUSH1 0x20 ADD DUP3 DUP1 SLOAD PUSH2 0xB97 SWAP1 PUSH2 0x15EF JUMP JUMPDEST DUP1 ISZERO PUSH2 0xBE4 JUMPI DUP1 PUSH1 0x1F LT PUSH2 0xBB9 JUMPI PUSH2 0x100 DUP1 DUP4 SLOAD DIV MUL DUP4 MSTORE SWAP2 PUSH1 0x20 ADD SWAP2 PUSH2 0xBE4 JUMP JUMPDEST DUP3 ADD SWAP2 SWAP1 PUSH1 0x0 MSTORE PUSH1 0x20 PUSH1 0x0 KECCAK256 SWAP1 JUMPDEST DUP2 SLOAD DUP2 MSTORE SWAP1 PUSH1 0x1 ADD SWAP1 PUSH1 0x20 ADD DUP1 DUP4 GT PUSH2 0xBC7 JUMPI DUP3 SWAP1 SUB PUSH1 0x1F AND DUP3 ADD SWAP2 JUMPDEST POP POP POP POP POP SWAP1 DUP1 PUSH1 0x4 ADD SLOAD SWAP1 DUP1 PUSH1 0x5 ADD SLOAD SWAP1 DUP1 PUSH1 0x6 ADD PUSH1 0x0 SWAP1 SLOAD SWAP1 PUSH2 0x100 EXP SWAP1 DIV PUSH1 0xFF AND SWAP1 DUP1 PUSH1 0x6 ADD PUSH1 0x1 SWAP1 SLOAD SWAP1 PUSH2 0x100 EXP SWAP1 DIV PUSH1 0xFF AND SWAP1 DUP1 PUSH1 0x6 ADD PUSH1 0x2 SWAP1 SLOAD SWAP1 PUSH2 0x100 EXP SWAP1 DIV PUSH1 0xFF AND SWAP1 DUP1 PUSH1 0x6 ADD PUSH1 0x3 SWAP1 SLOAD SWAP1 PUSH2 0x100 EXP SWAP1 DIV PUSH1 0xFF AND SWAP1 DUP1 PUSH1 0x6 ADD PUSH1 0x4 SWAP1 SLOAD SWAP1 PUSH2 0x100 EXP SWAP1 DIV PUSH1 0xFF AND SWAP1 POP DUP12 JUMP JUMPDEST PUSH1 0x2 PUSH1 0x20 MSTORE DUP1 PUSH1 0x0 MSTORE PUSH1 0x40 PUSH1 0x0 KECCAK256 PUSH1 0x0 SWAP2 POP SWAP1 POP DUP1 PUSH1 0x0 ADD PUSH1 0x0 SWAP1 SLOAD SWAP1 PUSH2 0x100 EXP SWAP1 DIV PUSH20 0xFFFFFFFFFFFFFFFFFFFFFFFFFFFFFFFFFFFFFFFF AND SWAP1 DUP1 PUSH1 0x1 ADD DUP1 SLOAD PUSH2 0xCA2 SWAP1 PUSH2 0x15EF JUMP JUMPDEST DUP1 PUSH1 0x1F ADD PUSH1 0x20 DUP1 SWAP2 DIV MUL PUSH1 0x20 ADD PUSH1 0x40 MLOAD SWAP1 DUP2 ADD PUSH1 0x40 MSTORE DUP1 SWAP3 SWAP2 SWAP1 DUP2 DUP2 MSTORE PUSH1 0x20 ADD DUP3 DUP1 SLOAD PUSH2 0xCCE SWAP1 PUSH2 0x15EF JUMP JUMPDEST DUP1 ISZERO PUSH2 0xD1B JUMPI DUP1 PUSH1 0x1F LT PUSH2 0xCF0 JUMPI PUSH2 0x100 DUP1 DUP4 SLOAD DIV MUL DUP4 MSTORE SWAP2 PUSH1 0x20 ADD SWAP2 PUSH2 0xD1B JUMP JUMPDEST DUP3 ADD SWAP2 SWAP1 PUSH1 0x0 MSTORE PUSH1 0x20 PUSH1 0x0 KECCAK256 SWAP1 JUMPDEST DUP2 SLOAD DUP2 MSTORE SWAP1 PUSH1 0x1 ADD SWAP1 PUSH1 0x20 ADD DUP1 DUP4 GT PUSH2 0xCFE JUMPI DUP3 SWAP1 SUB PUSH1 0x1F AND DUP3 ADD SWAP2 JUMPDEST POP POP POP POP POP SWAP1 DUP1 PUSH1 0x2 ADD DUP1 SLOAD PUSH2 0xD30 SWAP1 PUSH2 0x15EF JUMP JUMPDEST DUP1 PUSH1 0x1F ADD PUSH1 0x20 DUP1 SWAP2 DIV MUL PUSH1 0x20 ADD PUSH1 0x40 MLOAD SWAP1 DUP2 ADD PUSH1 0x40 MSTORE DUP1 SWAP3 SWAP2 SWAP1 DUP2 DUP2 MSTORE PUSH1 0x20 ADD DUP3 DUP1 SLOAD PUSH2 0xD5C SWAP1 PUSH2 0x15EF JUMP JUMPDEST DUP1 ISZERO PUSH2 0xDA9 JUMPI DUP1 PUSH1 0x1F LT PUSH2 0xD7E JUMPI PUSH2 0x100 DUP1 DUP4 SLOAD DIV MUL DUP4 MSTORE SWAP2 PUSH1 0x20 ADD SWAP2 PUSH2 0xDA9 JUMP JUMPDEST DUP3 ADD SWAP2 SWAP1 PUSH1 0x0 MSTORE PUSH1 0x20 PUSH1 0x0 KECCAK256 SWAP1 JUMPDEST DUP2 SLOAD DUP2 MSTORE SWAP1 PUSH1 0x1 ADD SWAP1 PUSH1 0x20 ADD DUP1 DUP4 GT PUSH2 0xD8C JUMPI DUP3 SWAP1 SUB PUSH1 0x1F AND DUP3 ADD SWAP2 JUMPDEST POP POP POP POP POP SWAP1 DUP1 PUSH1 0x3 ADD SLOAD SWAP1 DUP1 PUSH1 0x4 ADD SLOAD SWAP1 POP DUP6 JUMP JUMPDEST DUP3 DUP1 SLOAD PUSH2 0xDCB SWAP1 PUSH2 0x15EF JUMP JUMPDEST SWAP1 PUSH1 0x0 MSTORE PUSH1 0x20 PUSH1 0x0 KECCAK256 SWAP1 PUSH1 0x1F ADD PUSH1 0x20 SWAP1 DIV DUP2 ADD SWAP3 DUP3 PUSH2 0xDED JUMPI PUSH1 0x0 DUP6 SSTORE PUSH2 0xE34 JUMP JUMPDEST DUP3 PUSH1 0x1F LT PUSH2 0xE06 JUMPI DUP1 MLOAD PUSH1 0xFF NOT AND DUP4 DUP1 ADD OR DUP6 SSTORE PUSH2 0xE34 JUMP JUMPDEST DUP3 DUP1 ADD PUSH1 0x1 ADD DUP6 SSTORE DUP3 ISZERO PUSH2 0xE34 JUMPI SWAP2 DUP3 ADD JUMPDEST DUP3 DUP2 GT ISZERO PUSH2 0xE33 JUMPI DUP3 MLOAD DUP3 SSTORE SWAP2 PUSH1 0x20 ADD SWAP2 SWAP1 PUSH1 0x1 ADD SWAP1 PUSH2 0xE18 JUMP JUMPDEST JUMPDEST POP SWAP1 POP PUSH2 0xE41 SWAP2 SWAP1 PUSH2 0xE45 JUMP JUMPDEST POP SWAP1 JUMP JUMPDEST JUMPDEST DUP1 DUP3 GT ISZERO PUSH2 0xE5E JUMPI PUSH1 0x0 DUP2 PUSH1 0x0 SWAP1 SSTORE POP PUSH1 0x1 ADD PUSH2 0xE46 JUMP JUMPDEST POP SWAP1 JUMP JUMPDEST PUSH1 0x0 PUSH2 0xE75 PUSH2 0xE70 DUP5 PUSH2 0x14E2 JUMP JUMPDEST PUSH2 0x14B1 JUMP JUMPDEST SWAP1 POP DUP3 DUP2 MSTORE PUSH1 0x20 DUP2 ADD DUP5 DUP5 DUP5 ADD GT ISZERO PUSH2 0xE8D JUMPI PUSH1 0x0 DUP1 REVERT JUMPDEST PUSH2 0xE98 DUP5 DUP3 DUP6 PUSH2 0x15AD JUMP JUMPDEST POP SWAP4 SWAP3 POP POP POP JUMP JUMPDEST PUSH1 0x0 DUP2 CALLDATALOAD SWAP1 POP PUSH2 0xEAF DUP2 PUSH2 0x16D3 JUMP JUMPDEST SWAP3 SWAP2 POP POP JUMP JUMPDEST PUSH1 0x0 DUP2 CALLDATALOAD SWAP1 POP PUSH2 0xEC4 DUP2 PUSH2 0x16EA JUMP JUMPDEST SWAP3 SWAP2 POP POP JUMP JUMPDEST PUSH1 0x0 DUP2 CALLDATALOAD SWAP1 POP PUSH2 0xED9 DUP2 PUSH2 0x1701 JUMP JUMPDEST SWAP3 SWAP2 POP POP JUMP JUMPDEST PUSH1 0x0 DUP3 PUSH1 0x1F DUP4 ADD SLT PUSH2 0xEF0 JUMPI PUSH1 0x0 DUP1 REVERT JUMPDEST DUP2 CALLDATALOAD PUSH2 0xF00 DUP5 DUP3 PUSH1 0x20 DUP7 ADD PUSH2 0xE62 JUMP JUMPDEST SWAP2 POP POP SWAP3 SWAP2 POP POP JUMP JUMPDEST PUSH1 0x0 DUP2 CALLDATALOAD SWAP1 POP PUSH2 0xF18 DUP2 PUSH2 0x1711 JUMP JUMPDEST SWAP3 SWAP2 POP POP JUMP JUMPDEST PUSH1 0x0 PUSH1 0x20 DUP3 DUP5 SUB SLT ISZERO PUSH2 0xF30 JUMPI PUSH1 0x0 DUP1 REVERT JUMPDEST PUSH1 0x0 PUSH2 0xF3E DUP5 DUP3 DUP6 ADD PUSH2 0xEA0 JUMP JUMPDEST SWAP2 POP POP SWAP3 SWAP2 POP POP JUMP JUMPDEST PUSH1 0x0 DUP1 PUSH1 0x40 DUP4 DUP6 SUB SLT ISZERO PUSH2 0xF5A JUMPI PUSH1 0x0 DUP1 REVERT JUMPDEST PUSH1 0x0 DUP4 ADD CALLDATALOAD PUSH8 0xFFFFFFFFFFFFFFFF DUP2 GT ISZERO PUSH2 0xF74 JUMPI PUSH1 0x0 DUP1 REVERT JUMPDEST PUSH2 0xF80 DUP6 DUP3 DUP7 ADD PUSH2 0xEDF JUMP JUMPDEST SWAP3 POP POP PUSH1 0x20 PUSH2 0xF91 DUP6 DUP3 DUP7 ADD PUSH2 0xECA JUMP JUMPDEST SWAP2 POP POP SWAP3 POP SWAP3 SWAP1 POP JUMP JUMPDEST PUSH1 0x0 DUP1 PUSH1 0x0 DUP1 PUSH1 0x0 DUP1 PUSH1 0x0 DUP1 PUSH1 0x0 PUSH2 0x120 DUP11 DUP13 SUB SLT ISZERO PUSH2 0xFBA JUMPI PUSH1 0x0 DUP1 REVERT JUMPDEST PUSH1 0x0 DUP11 ADD CALLDATALOAD PUSH8 0xFFFFFFFFFFFFFFFF DUP2 GT ISZERO PUSH2 0xFD4 JUMPI PUSH1 0x0 DUP1 REVERT JUMPDEST PUSH2 0xFE0 DUP13 DUP3 DUP14 ADD PUSH2 0xEDF JUMP JUMPDEST SWAP10 POP POP PUSH1 0x20 DUP11 ADD CALLDATALOAD PUSH8 0xFFFFFFFFFFFFFFFF DUP2 GT ISZERO PUSH2 0xFFD JUMPI PUSH1 0x0 DUP1 REVERT JUMPDEST PUSH2 0x1009 DUP13 DUP3 DUP14 ADD PUSH2 0xEDF JUMP JUMPDEST SWAP9 POP POP PUSH1 0x40 PUSH2 0x101A DUP13 DUP3 DUP14 ADD PUSH2 0xF09 JUMP JUMPDEST SWAP8 POP POP PUSH1 0x60 PUSH2 0x102B DUP13 DUP3 DUP14 ADD PUSH2 0xF09 JUMP JUMPDEST SWAP7 POP POP PUSH1 0x80 PUSH2 0x103C DUP13 DUP3 DUP14 ADD PUSH2 0xEB5 JUMP JUMPDEST SWAP6 POP POP PUSH1 0xA0 PUSH2 0x104D DUP13 DUP3 DUP14 ADD PUSH2 0xEB5 JUMP JUMPDEST SWAP5 POP POP PUSH1 0xC0 PUSH2 0x105E DUP13 DUP3 DUP14 ADD PUSH2 0xEB5 JUMP JUMPDEST SWAP4 POP POP PUSH1 0xE0 PUSH2 0x106F DUP13 DUP3 DUP14 ADD PUSH2 0xEB5 JUMP JUMPDEST SWAP3 POP POP PUSH2 0x100 PUSH2 0x1081 DUP13 DUP3 DUP14 ADD PUSH2 0xEB5 JUMP JUMPDEST SWAP2 POP POP SWAP3 SWAP6 SWAP9 POP SWAP3 SWAP6 SWAP9 POP SWAP3 SWAP6 SWAP9 JUMP JUMPDEST PUSH2 0x109A DUP2 PUSH2 0x1540 JUMP JUMPDEST DUP3 MSTORE POP POP JUMP JUMPDEST PUSH2 0x10A9 DUP2 PUSH2 0x152E JUMP JUMPDEST DUP3 MSTORE POP POP JUMP JUMPDEST PUSH2 0x10B8 DUP2 PUSH2 0x1552 JUMP JUMPDEST DUP3 MSTORE POP POP JUMP JUMPDEST PUSH2 0x10C7 DUP2 PUSH2 0x159B JUMP JUMPDEST DUP3 MSTORE POP POP JUMP JUMPDEST PUSH1 0x0 PUSH2 0x10D8 DUP3 PUSH2 0x1512 JUMP JUMPDEST PUSH2 0x10E2 DUP2 DUP6 PUSH2 0x151D JUMP JUMPDEST SWAP4 POP PUSH2 0x10F2 DUP2 DUP6 PUSH1 0x20 DUP7 ADD PUSH2 0x15BC JUMP JUMPDEST PUSH2 0x10FB DUP2 PUSH2 0x16AE JUMP JUMPDEST DUP5 ADD SWAP2 POP POP SWAP3 SWAP2 POP POP JUMP JUMPDEST PUSH1 0x0 PUSH2 0x1113 PUSH1 0x28 DUP4 PUSH2 0x151D JUMP JUMPDEST SWAP2 POP PUSH32 0x596F7520616C7265616479206861766520616E20616374697665207269646520 PUSH1 0x0 DUP4 ADD MSTORE PUSH32 0x726571756573742E000000000000000000000000000000000000000000000000 PUSH1 0x20 DUP4 ADD MSTORE PUSH1 0x40 DUP3 ADD SWAP1 POP SWAP2 SWAP1 POP JUMP JUMPDEST PUSH1 0x0 PUSH2 0x1179 PUSH1 0x14 DUP4 PUSH2 0x151D JUMP JUMPDEST SWAP2 POP PUSH32 0x5573657220646F6573206E6F742065786973742E000000000000000000000000 PUSH1 0x0 DUP4 ADD MSTORE PUSH1 0x20 DUP3 ADD SWAP1 POP SWAP2 SWAP1 POP JUMP JUMPDEST PUSH1 0x0 PUSH2 0x11B9 PUSH1 0x14 DUP4 PUSH2 0x151D JUMP JUMPDEST SWAP2 POP PUSH32 0x5573657220616C7265616479206578697374732E000000000000000000000000 PUSH1 0x0 DUP4 ADD MSTORE PUSH1 0x20 DUP3 ADD SWAP1 POP SWAP2 SWAP1 POP JUMP JUMPDEST PUSH1 0x0 PUSH2 0x11F9 PUSH1 0x1C DUP4 PUSH2 0x151D JUMP JUMPDEST SWAP2 POP PUSH32 0x596F75206D757374207265676973746572206173206120757365722E00000000 PUSH1 0x0 DUP4 ADD MSTORE PUSH1 0x20 DUP3 ADD SWAP1 POP SWAP2 SWAP1 POP JUMP JUMPDEST PUSH2 0x1235 DUP2 PUSH2 0x1591 JUMP JUMPDEST DUP3 MSTORE POP POP JUMP JUMPDEST PUSH1 0x0 PUSH2 0x160 DUP3 ADD SWAP1 POP PUSH2 0x1251 PUSH1 0x0 DUP4 ADD DUP15 PUSH2 0x10A0 JUMP JUMPDEST PUSH2 0x125E PUSH1 0x20 DUP4 ADD DUP14 PUSH2 0x1091 JUMP JUMPDEST DUP2 DUP2 SUB PUSH1 0x40 DUP4 ADD MSTORE PUSH2 0x1270 DUP2 DUP13 PUSH2 0x10CD JUMP JUMPDEST SWAP1 POP DUP2 DUP2 SUB PUSH1 0x60 DUP4 ADD MSTORE PUSH2 0x1284 DUP2 DUP12 PUSH2 0x10CD JUMP JUMPDEST SWAP1 POP PUSH2 0x1293 PUSH1 0x80 DUP4 ADD DUP11 PUSH2 0x122C JUMP JUMPDEST PUSH2 0x12A0 PUSH1 0xA0 DUP4 ADD DUP10 PUSH2 0x122C JUMP JUMPDEST PUSH2 0x12AD PUSH1 0xC0 DUP4 ADD DUP9 PUSH2 0x10AF JUMP JUMPDEST PUSH2 0x12BA PUSH1 0xE0 DUP4 ADD DUP8 PUSH2 0x10AF JUMP JUMPDEST PUSH2 0x12C8 PUSH2 0x100 DUP4 ADD DUP7 PUSH2 0x10AF JUMP JUMPDEST PUSH2 0x12D6 PUSH2 0x120 DUP4 ADD DUP6 PUSH2 0x10AF JUMP JUMPDEST PUSH2 0x12E4 PUSH2 0x140 DUP4 ADD DUP5 PUSH2 0x10AF JUMP JUMPDEST SWAP13 SWAP12 POP POP POP POP POP POP POP POP POP POP POP POP JUMP JUMPDEST PUSH1 0x0 PUSH1 0xA0 DUP3 ADD SWAP1 POP PUSH2 0x1309 PUSH1 0x0 DUP4 ADD DUP9 PUSH2 0x10A0 JUMP JUMPDEST DUP2 DUP2 SUB PUSH1 0x20 DUP4 ADD MSTORE PUSH2 0x131B DUP2 DUP8 PUSH2 0x10CD JUMP JUMPDEST SWAP1 POP DUP2 DUP2 SUB PUSH1 0x40 DUP4 ADD MSTORE PUSH2 0x132F DUP2 DUP7 PUSH2 0x10CD JUMP JUMPDEST SWAP1 POP PUSH2 0x133E PUSH1 0x60 DUP4 ADD DUP6 PUSH2 0x122C JUMP JUMPDEST PUSH2 0x134B PUSH1 0x80 DUP4 ADD DUP5 PUSH2 0x122C JUMP JUMPDEST SWAP7 SWAP6 POP POP POP POP POP POP JUMP JUMPDEST PUSH1 0x0 PUSH1 0x20 DUP3 ADD SWAP1 POP PUSH2 0x136A PUSH1 0x0 DUP4 ADD DUP5 PUSH2 0x10BE JUMP JUMPDEST SWAP3 SWAP2 POP POP JUMP JUMPDEST PUSH1 0x0 PUSH1 0x60 DUP3 ADD SWAP1 POP DUP2 DUP2 SUB PUSH1 0x0 DUP4 ADD MSTORE PUSH2 0x138A DUP2 DUP7 PUSH2 0x10CD JUMP JUMPDEST SWAP1 POP PUSH2 0x1399 PUSH1 0x20 DUP4 ADD DUP6 PUSH2 0x10A0 JUMP JUMPDEST PUSH2 0x13A6 PUSH1 0x40 DUP4 ADD DUP5 PUSH2 0x10BE JUMP JUMPDEST SWAP5 SWAP4 POP POP POP POP JUMP JUMPDEST PUSH1 0x0 PUSH1 0x40 DUP3 ADD SWAP1 POP DUP2 DUP2 SUB PUSH1 0x0 DUP4 ADD MSTORE PUSH2 0x13C8 DUP2 DUP6 PUSH2 0x10CD JUMP JUMPDEST SWAP1 POP PUSH2 0x13D7 PUSH1 0x20 DUP4 ADD DUP5 PUSH2 0x10BE JUMP JUMPDEST SWAP4 SWAP3 POP POP POP JUMP JUMPDEST PUSH1 0x0 PUSH1 0x80 DUP3 ADD SWAP1 POP DUP2 DUP2 SUB PUSH1 0x0 DUP4 ADD MSTORE PUSH2 0x13F8 DUP2 DUP8 PUSH2 0x10CD JUMP JUMPDEST SWAP1 POP DUP2 DUP2 SUB PUSH1 0x20 DUP4 ADD MSTORE PUSH2 0x140C DUP2 DUP7 PUSH2 0x10CD JUMP JUMPDEST SWAP1 POP PUSH2 0x141B PUSH1 0x40 DUP4 ADD DUP6 PUSH2 0x122C JUMP JUMPDEST PUSH2 0x1428 PUSH1 0x60 DUP4 ADD DUP5 PUSH2 0x122C JUMP JUMPDEST SWAP6 SWAP5 POP POP POP POP POP JUMP JUMPDEST PUSH1 0x0 PUSH1 0x20 DUP3 ADD SWAP1 POP DUP2 DUP2 SUB PUSH1 0x0 DUP4 ADD MSTORE PUSH2 0x144A DUP2 PUSH2 0x1106 JUMP JUMPDEST SWAP1 POP SWAP2 SWAP1 POP JUMP JUMPDEST PUSH1 0x0 PUSH1 0x20 DUP3 ADD SWAP1 POP DUP2 DUP2 SUB PUSH1 0x0 DUP4 ADD MSTORE PUSH2 0x146A DUP2 PUSH2 0x116C JUMP JUMPDEST SWAP1 POP SWAP2 SWAP1 POP JUMP JUMPDEST PUSH1 0x0 PUSH1 0x20 DUP3 ADD SWAP1 POP DUP2 DUP2 SUB PUSH1 0x0 DUP4 ADD MSTORE PUSH2 0x148A DUP2 PUSH2 0x11AC JUMP JUMPDEST SWAP1 POP SWAP2 SWAP1 POP JUMP JUMPDEST PUSH1 0x0 PUSH1 0x20 DUP3 ADD SWAP1 POP DUP2 DUP2 SUB PUSH1 0x0 DUP4 ADD MSTORE PUSH2 0x14AA DUP2 PUSH2 0x11EC JUMP JUMPDEST SWAP1 POP SWAP2 SWAP1 POP JUMP JUMPDEST PUSH1 0x0 PUSH1 0x40 MLOAD SWAP1 POP DUP2 DUP2 ADD DUP2 DUP2 LT PUSH8 0xFFFFFFFFFFFFFFFF DUP3 GT OR ISZERO PUSH2 0x14D8 JUMPI PUSH2 0x14D7 PUSH2 0x167F JUMP JUMPDEST JUMPDEST DUP1 PUSH1 0x40 MSTORE POP SWAP2 SWAP1 POP JUMP JUMPDEST PUSH1 0x0 PUSH8 0xFFFFFFFFFFFFFFFF DUP3 GT ISZERO PUSH2 0x14FD JUMPI PUSH2 0x14FC PUSH2 0x167F JUMP JUMPDEST JUMPDEST PUSH1 0x1F NOT PUSH1 0x1F DUP4 ADD AND SWAP1 POP PUSH1 0x20 DUP2 ADD SWAP1 POP SWAP2 SWAP1 POP JUMP JUMPDEST PUSH1 0x0 DUP2 MLOAD SWAP1 POP SWAP2 SWAP1 POP JUMP JUMPDEST PUSH1 0x0 DUP3 DUP3 MSTORE PUSH1 0x20 DUP3 ADD SWAP1 POP SWAP3 SWAP2 POP POP JUMP JUMPDEST PUSH1 0x0 PUSH2 0x1539 DUP3 PUSH2 0x1571 JUMP JUMPDEST SWAP1 POP SWAP2 SWAP1 POP JUMP JUMPDEST PUSH1 0x0 PUSH2 0x154B DUP3 PUSH2 0x1571 JUMP JUMPDEST SWAP1 POP SWAP2 SWAP1 POP JUMP JUMPDEST PUSH1 0x0 DUP2 ISZERO ISZERO SWAP1 POP SWAP2 SWAP1 POP JUMP JUMPDEST PUSH1 0x0 DUP2 SWAP1 POP PUSH2 0x156C DUP3 PUSH2 0x16BF JUMP JUMPDEST SWAP2 SWAP1 POP JUMP JUMPDEST PUSH1 0x0 PUSH20 0xFFFFFFFFFFFFFFFFFFFFFFFFFFFFFFFFFFFFFFFF DUP3 AND SWAP1 POP SWAP2 SWAP1 POP JUMP JUMPDEST PUSH1 0x0 DUP2 SWAP1 POP SWAP2 SWAP1 POP JUMP JUMPDEST PUSH1 0x0 PUSH2 0x15A6 DUP3 PUSH2 0x155E JUMP JUMPDEST SWAP1 POP SWAP2 SWAP1 POP JUMP JUMPDEST DUP3 DUP2 DUP4 CALLDATACOPY PUSH1 0x0 DUP4 DUP4 ADD MSTORE POP POP POP JUMP JUMPDEST PUSH1 0x0 JUMPDEST DUP4 DUP2 LT ISZERO PUSH2 0x15DA JUMPI DUP1 DUP3 ADD MLOAD DUP2 DUP5 ADD MSTORE PUSH1 0x20 DUP2 ADD SWAP1 POP PUSH2 0x15BF JUMP JUMPDEST DUP4 DUP2 GT ISZERO PUSH2 0x15E9 JUMPI PUSH1 0x0 DUP5 DUP5 ADD MSTORE JUMPDEST POP POP POP POP JUMP JUMPDEST PUSH1 0x0 PUSH1 0x2 DUP3 DIV SWAP1 POP PUSH1 0x1 DUP3 AND DUP1 PUSH2 0x1607 JUMPI PUSH1 0x7F DUP3 AND SWAP2 POP JUMPDEST PUSH1 0x20 DUP3 LT DUP2 EQ ISZERO PUSH2 0x161B JUMPI PUSH2 0x161A PUSH2 0x1650 JUMP JUMPDEST JUMPDEST POP SWAP2 SWAP1 POP JUMP JUMPDEST PUSH32 0x4E487B7100000000000000000000000000000000000000000000000000000000 PUSH1 0x0 MSTORE PUSH1 0x21 PUSH1 0x4 MSTORE PUSH1 0x24 PUSH1 0x0 REVERT JUMPDEST PUSH32 0x4E487B7100000000000000000000000000000000000000000000000000000000 PUSH1 0x0 MSTORE PUSH1 0x22 PUSH1 0x4 MSTORE PUSH1 0x24 PUSH1 0x0 REVERT JUMPDEST PUSH32 0x4E487B7100000000000000000000000000000000000000000000000000000000 PUSH1 0x0 MSTORE PUSH1 0x41 PUSH1 0x4 MSTORE PUSH1 0x24 PUSH1 0x0 REVERT JUMPDEST PUSH1 0x0 PUSH1 0x1F NOT PUSH1 0x1F DUP4 ADD AND SWAP1 POP SWAP2 SWAP1 POP JUMP JUMPDEST PUSH1 0x2 DUP2 LT PUSH2 0x16D0 JUMPI PUSH2 0x16CF PUSH2 0x1621 JUMP JUMPDEST JUMPDEST POP JUMP JUMPDEST PUSH2 0x16DC DUP2 PUSH2 0x152E JUMP JUMPDEST DUP2 EQ PUSH2 0x16E7 JUMPI PUSH1 0x0 DUP1 REVERT JUMPDEST POP JUMP JUMPDEST PUSH2 0x16F3 DUP2 PUSH2 0x1552 JUMP JUMPDEST DUP2 EQ PUSH2 0x16FE JUMPI PUSH1 0x0 DUP1 REVERT JUMPDEST POP JUMP JUMPDEST PUSH1 0x2 DUP2 LT PUSH2 0x170E JUMPI PUSH1 0x0 DUP1 REVERT JUMPDEST POP JUMP JUMPDEST PUSH2 0x171A DUP2 PUSH2 0x1591 JUMP JUMPDEST DUP2 EQ PUSH2 0x1725 JUMPI PUSH1 0x0 DUP1 REVERT JUMPDEST POP JUMP INVALID LOG2 PUSH5 0x6970667358 0x22 SLT KECCAK256 PUSH28 0xA31991AEF28E17D62A074E59DDFF57012A3CC79A8835A01CE125A 0x21 OR DUP13 PUSH5 0x736F6C6343 STOP ADDMOD STOP STOP CALLER "
				},
				"gasEstimates": {
					"creation": {
						"codeDepositCost": "1196400",
						"executionCost": "1241",
						"totalCost": "1197641"
					},
					"external": {
						"loginUser()": "3803",
						"registerUser(string,uint8)": "infinite",
						"requestRide(string,string,uint256,uint256,bool,bool,bool,bool,bool)": "infinite",
						"rideDetails(address)": "infinite",
						"rideRequests(address)": "infinite",
						"users(address)": "infinite"
					}
				},
				"methodIdentifiers": {
					"loginUser()": "a19ed686",
					"registerUser(string,uint8)": "338e12eb",
					"requestRide(string,string,uint256,uint256,bool,bool,bool,bool,bool)": "10cf8c91",
					"rideDetails(address)": "fa107367",
					"rideRequests(address)": "c2d8b28f",
					"users(address)": "a87430ba"
				}
			},
			"storageLayout": {
				"storage": [
					{
						"astId": 51,
						"contract": "HitchHike.sol:Hitchhike",
						"label": "users",
						"offset": 0,
						"slot": "0",
						"type": "t_mapping(t_address,t_struct(UserProfile)9_storage)"
					},
					{
						"astId": 56,
						"contract": "HitchHike.sol:Hitchhike",
						"label": "rideRequests",
						"offset": 0,
						"slot": "1",
						"type": "t_mapping(t_address,t_struct(RideRequest)35_storage)"
					},
					{
						"astId": 61,
						"contract": "HitchHike.sol:Hitchhike",
						"label": "rideDetails",
						"offset": 0,
						"slot": "2",
						"type": "t_mapping(t_address,t_struct(RideDetails)46_storage)"
					}
				],
				"types": {
					"t_address": {
						"encoding": "inplace",
						"label": "address",
						"numberOfBytes": "20"
					},
					"t_address_payable": {
						"encoding": "inplace",
						"label": "address payable",
						"numberOfBytes": "20"
					},
					"t_bool": {
						"encoding": "inplace",
						"label": "bool",
						"numberOfBytes": "1"
					},
					"t_enum(UserType)12": {
						"encoding": "inplace",
						"label": "enum Hitchhike.UserType",
						"numberOfBytes": "1"
					},
					"t_mapping(t_address,t_struct(RideDetails)46_storage)": {
						"encoding": "mapping",
						"key": "t_address",
						"label": "mapping(address => struct Hitchhike.RideDetails)",
						"numberOfBytes": "32",
						"value": "t_struct(RideDetails)46_storage"
					},
					"t_mapping(t_address,t_struct(RideRequest)35_storage)": {
						"encoding": "mapping",
						"key": "t_address",
						"label": "mapping(address => struct Hitchhike.RideRequest)",
						"numberOfBytes": "32",
						"value": "t_struct(RideRequest)35_storage"
					},
					"t_mapping(t_address,t_struct(UserProfile)9_storage)": {
						"encoding": "mapping",
						"key": "t_address",
						"label": "mapping(address => struct Hitchhike.UserProfile)",
						"numberOfBytes": "32",
						"value": "t_struct(UserProfile)9_storage"
					},
					"t_string_storage": {
						"encoding": "bytes",
						"label": "string",
						"numberOfBytes": "32"
					},
					"t_struct(RideDetails)46_storage": {
						"encoding": "inplace",
						"label": "struct Hitchhike.RideDetails",
						"members": [
							{
								"astId": 37,
								"contract": "HitchHike.sol:Hitchhike",
								"label": "driver",
								"offset": 0,
								"slot": "0",
								"type": "t_address"
							},
							{
								"astId": 39,
								"contract": "HitchHike.sol:Hitchhike",
								"label": "vehicleType",
								"offset": 0,
								"slot": "1",
								"type": "t_string_storage"
							},
							{
								"astId": 41,
								"contract": "HitchHike.sol:Hitchhike",
								"label": "currentLocation",
								"offset": 0,
								"slot": "2",
								"type": "t_string_storage"
							},
							{
								"astId": 43,
								"contract": "HitchHike.sol:Hitchhike",
								"label": "cost",
								"offset": 0,
								"slot": "3",
								"type": "t_uint256"
							},
							{
								"astId": 45,
								"contract": "HitchHike.sol:Hitchhike",
								"label": "estimatedTime",
								"offset": 0,
								"slot": "4",
								"type": "t_uint256"
							}
						],
						"numberOfBytes": "160"
					},
					"t_struct(RideRequest)35_storage": {
						"encoding": "inplace",
						"label": "struct Hitchhike.RideRequest",
						"members": [
							{
								"astId": 14,
								"contract": "HitchHike.sol:Hitchhike",
								"label": "hitchhiker",
								"offset": 0,
								"slot": "0",
								"type": "t_address"
							},
							{
								"astId": 16,
								"contract": "HitchHike.sol:Hitchhike",
								"label": "driver",
								"offset": 0,
								"slot": "1",
								"type": "t_address_payable"
							},
							{
								"astId": 18,
								"contract": "HitchHike.sol:Hitchhike",
								"label": "currentLocation",
								"offset": 0,
								"slot": "2",
								"type": "t_string_storage"
							},
							{
								"astId": 20,
								"contract": "HitchHike.sol:Hitchhike",
								"label": "destination",
								"offset": 0,
								"slot": "3",
								"type": "t_string_storage"
							},
							{
								"astId": 22,
								"contract": "HitchHike.sol:Hitchhike",
								"label": "cost",
								"offset": 0,
								"slot": "4",
								"type": "t_uint256"
							},
							{
								"astId": 24,
								"contract": "HitchHike.sol:Hitchhike",
								"label": "estimatedTime",
								"offset": 0,
								"slot": "5",
								"type": "t_uint256"
							},
							{
								"astId": 26,
								"contract": "HitchHike.sol:Hitchhike",
								"label": "isAccepted",
								"offset": 0,
								"slot": "6",
								"type": "t_bool"
							},
							{
								"astId": 28,
								"contract": "HitchHike.sol:Hitchhike",
								"label": "isCompleted",
								"offset": 1,
								"slot": "6",
								"type": "t_bool"
							},
							{
								"astId": 30,
								"contract": "HitchHike.sol:Hitchhike",
								"label": "passengerConfirmed",
								"offset": 2,
								"slot": "6",
								"type": "t_bool"
							},
							{
								"astId": 32,
								"contract": "HitchHike.sol:Hitchhike",
								"label": "driverConfirmed",
								"offset": 3,
								"slot": "6",
								"type": "t_bool"
							},
							{
								"astId": 34,
								"contract": "HitchHike.sol:Hitchhike",
								"label": "isCancelled",
								"offset": 4,
								"slot": "6",
								"type": "t_bool"
							}
						],
						"numberOfBytes": "224"
					},
					"t_struct(UserProfile)9_storage": {
						"encoding": "inplace",
						"label": "struct Hitchhike.UserProfile",
						"members": [
							{
								"astId": 3,
								"contract": "HitchHike.sol:Hitchhike",
								"label": "name",
								"offset": 0,
								"slot": "0",
								"type": "t_string_storage"
							},
							{
								"astId": 5,
								"contract": "HitchHike.sol:Hitchhike",
								"label": "walletAddress",
								"offset": 0,
								"slot": "1",
								"type": "t_address"
							},
							{
								"astId": 8,
								"contract": "HitchHike.sol:Hitchhike",
								"label": "userType",
								"offset": 20,
								"slot": "1",
								"type": "t_enum(UserType)12"
							}
						],
						"numberOfBytes": "64"
					},
					"t_uint256": {
						"encoding": "inplace",
						"label": "uint256",
						"numberOfBytes": "32"
					}
				}
			},
			"userdoc": {
				"kind": "user",
				"methods": {},
				"version": 1
			}
		}
	}
}